:100000000C942E010C945F010C945F010C945F0121
:100010000C945F010C945F010C945F010C945F01E0
:100020000C945F010C945F010C945F010C945F01D0
:100030000C945F010C945F010C945F010C945F01C0
:100040000C945F010C945F010C945F010C945F01B0
:100050000C945F010C945F010C945F010C94A50358
:100060000C945F010C9419040C94EF030C945F0141
:100070000C945F010C945F010C945F010C945F0180
:100080000C945F010C945F010C945F010C945F0170
:100090000C94F2040C94CA040C944F040C945F0169
:1000A0000C945F010C945F010C945F010C945F0150
:1000B0000C945F010C945F010C945F010C945F0140
:1000C0000C945F010C945F010C945F010C945F0130
:1000D0000C945F010C945F010C945F010C945F0120
:1000E0000C945F010C94DD010C94DC020C94B401BF
:1000F0000C94A8010C94B7010C9457020C9449027B
:100100000C9491010C94AC010C94D9010C94D50180
:100110000C94BD010C94C7010C94E7010C94CF0121
:100120000C9426020C94F9010C94CB010C948F02D0
:100130000C94B0010C9489090C94C1010C949601A3
:100140000C9435020C94E3016364696E6F707375EF
:1001500078585B0000002100240027002A002D00B1
:100160003000330001010000040107010A01000012
:100170002200250028002B002E003100340002014F
:100180000000050108010B01050505050705080824
:100190000808020202020A0A080804040404010111
:1001A0000101010101010303030303030303040726
:1001B00007070C0C0C0C0C0C0C0C020202020606BD
:1001C0000606060606060B0B0B0B0B0B0B0B0102B0
:1001D0001020200808102040102040800201020159
:1001E0000804020101020408102040808040201011
:1001F000080402018004020180402010080402016A
:1002000008040201010204081020408001020408D1
:100210001020408000000A0B02090C0D0E08070395
:1002200004010000000000000000000000000000C9
:1002300000000000000000000000000000000000BE
:10024000121110000000000000000000000000007B
:1002500000000000000000000000890911241FBEFA
:10026000CFEFD1E2DEBFCDBF00E00CBF12E0A0E0D7
:10027000B2E0EAEAFAE100E00BBF02C007900D929B
:10028000AA3EB107D9F728E0AAEEB2E001C01D925C
:10029000A430B207E1F711E0CEE2D1E000E006C001
:1002A00021970109802FFE010E94D809CD32D10784
:1002B00080E00807A9F70E948E050C94530D0C945A
:1002C0000000282F30E0F901EC5EFD4F9491F90118
:1002D000E253FE4F449128573E4FF90124912223C7
:1002E00009F435C0992311F191509231F8F4E92FB6
:1002F000F0E08827E158FE4F8F4F0C94D809B001E9
:10030000B4019101A801AC019601B701BD01C10181
:10031000C701CB01CF01D501D9019601DD01E30170
:10032000E701809180008F7780938000E22FF0E0DA
:10033000EE0FFF1FE259FE4FA591B4918FB7F894CD
:10034000EC91611148C040954E234C938FBF0895A6
:10035000809180008F7DE8CF80918000877FE4CFFF
:1003600084B58F7784BDE2CF84B58F7DFBCF80913C
:10037000B0008F778093B000D9CF8091B0008F7D8F
:10038000F9CF809190008F7780939000CFCF8091AC
:1003900090008F7DF9CF80919000877FF5CF80917D
:1003A000A0008F778093A000C1CF8091A0008F7DA7
:1003B000F9CF8091A000877FF5CF809120018F77C2
:1003C00080932001B3CF809120018F7DF9CF809160
:1003D0002001877FF5CF4E2BB8CF2FB7F8946091CF
:1003E00063077091640780916507909166072FBF3E
:1003F0000895AF92BF92CF92DF92EF92FF920F9348
:100400001F93CF93DF936C017B018B01040F151FAA
:10041000EB015E01AE18BF08C017D10759F0699112
:10042000D601ED91FC910190F081E02DC601199566
:10043000892B79F7C501DF91CF911F910F91FF9023
:10044000EF90DF90CF90BF90AF900895FC01538D57
:10045000448D252F30E0842F90E0821B930B54179E
:1004600010F0CF96089501970895FC01918D828D2B
:10047000981761F0A28DAE0FBF2FB11D5D968C91C4
:10048000928D9F5F9F73928F90E008958FEF9FEF03
:100490000895FC01918D828D981731F0828DE80FBF
:1004A000F11D858D90E008958FEF9FEF0895FC0179
:1004B000918D228D892F90E0805C9F4F821B910946
:1004C0008F739927089587E697E00E94570221E0ED
:1004D000892B09F420E0822F0895FC01A48DA80F38
:1004E000B92FB11DA35ABF4F2C91848D90E0019676
:1004F0008F739927848FA689B7892C93A089B18996
:100500008C91837080648C93938D848D981306C036
:100510000288F389E02D80818F7D80830895EF929A
:10052000FF920F931F93CF93DF93EC0181E0888FAD
:100530009B8D8C8D98131AC0E889F989808185FF7D
:1005400015C09FB7F894EE89FF896083E889F9891F
:1005500080818370806480839FBF81E090E0DF9121
:10056000CF911F910F91FF90EF900895F62E0B8D74
:1005700010E00F5F1F4F0F731127E02E8C8D8E112F
:100580000CC00FB607FCFACFE889F989808185FF96
:10059000F5CFCE010E946D02F1CFEB8DEC0FFD2F58
:1005A000F11DE35AFF4FF0829FB7F8940B8FEA8951
:1005B000FB8980818062CFCFCF93DF93EC01888D60
:1005C0008823B9F0AA89BB89E889F9898C9185FDCE
:1005D00003C0808186FD0DC00FB607FCF7CF8C915C
:1005E00085FFF2CF808185FFEDCFCE010E946D02A5
:1005F000E9CFDF91CF91089580E090E0892B29F039
:100600000E94630281110E94000080E090E0892B2B
:1006100049F080E090E0892B29F00E9400008111D0
:100620000E94000080E090E0892B49F080E090E09B
:10063000892B29F00E94000081110E94000080E0B7
:1006400090E0892B49F080E090E0892B29F00E940E
:10065000000081110C94000008951092430510923F
:1006600044051092450510924605109247051092D8
:1006700048051092490510924A0510924B051092B8
:100680004C0510924D0510924E050895FC01019005
:100690000020E9F73197AF01481B590BBC0187E6F1
:1006A00097E00C94F9018F929F92AF92BF920F93B3
:1006B0001F93CF93DF93CDB7DEB7A1970FB6F89412
:1006C000DEBF0FBECDBF19A2423008F44AE08E0152
:1006D0000F5D1F4F842E912CB12CA12CA5019401EC
:1006E0000E94B609E62FB901CA01EA30F4F4E05DD0
:1006F000D801EE938D01232B242B252B79F790E045
:1007000080E0109719F0CD010E944603A1960FB624
:10071000F894DEBF0FBECDBFDF91CF911F910F9137
:10072000BF90AF909F908F900895E95CE1CFCF93F9
:10073000DF930E944603EC0186E192E00E944603AB
:100740008C0F9D1FDF91CF9108951F920F920FB6CE
:100750000F9211242F933F938F939F93AF93BF9347
:100760008091630790916407A0916507B091660737
:100770003091620723E0230F2D3758F50196A11D14
:10078000B11D209362078093630790936407A09341
:100790006507B093660780915E0790915F07A0910F
:1007A0006007B09161070196A11DB11D80935E079E
:1007B00090935F07A0936007B0936107BF91AF91DB
:1007C0009F918F913F912F910F900FBE0F901F908F
:1007D000189526E8230F0296A11DB11DD2CF1F92B6
:1007E0000F920FB60F9211240BB60F922F933F93D7
:1007F0004F935F936F937F938F939F93AF93BF9329
:10080000EF93FF9387E697E00E946D02FF91EF91CF
:10081000BF91AF919F918F917F916F915F914F9118
:100820003F912F910F900BBE0F900FBE0F901F9016
:1008300018951F920F920FB60F9211240BB60F92BC
:100840002F938F939F93EF93FF93E0917707F0910E
:1008500078078081E0917D07F0917E0782FD1DC0C1
:100860009081809180078F5F8F732091810782171D
:1008700041F0E0918007F0E0E959F84F958F8093BF
:100880008007FF91EF919F918F912F910F900BBE59
:100890000F900FBE0F901F9018958081F2CF1F927E
:1008A0000F920FB60F9211240BB60F922F933F9316
:1008B0008F939F93EF93FF938091F0029091F102B9
:1008C0002091F5023091F6022130310509F58F3F74
:1008D0009807F1F41092CD0089E08093CC0088E471
:1008E0008093C9008EE28093CA001092CE001092CD
:1008F000F1021092F002FF91EF919F918F913F9141
:100900002F910F900BBE0F900FBE0F901F90189558
:100910000097A1F41092CD0083E08093CC0088E290
:100920008093C9008EE08093CA001092CE0081E0CF
:1009300090E09093F1028093F002DDCF20910002CD
:10094000309101028217930774F49C012F5F3F4F8F
:100950003093F1022093F0028E5B9C4FFC0180816A
:100960008093CE00C8CF1092CD0083E08093CC005E
:1009700088E48093C9008EE08093CA00E091F00281
:10098000F091F102EE5BFC4F80818093CE008FEFFF
:100990009FEFCFCF1F920F920FB60F9211240BB67D
:1009A0000F922F933F934F935F936F937F938F9308
:1009B0009F93AF93BF93EF93FF930E944F04FF91D8
:1009C000EF91BF91AF919F918F917F916F915F91C7
:1009D0004F913F912F910F900BBE0F900FBE0F9034
:1009E0001F9018951F920F920FB60F9211240BB6FD
:1009F0000F921F932F933F934F935F936F937F9328
:100A00008F939F93AF93BF93CF93DF93EF93FF9316
:100A10009091C8001091CE008091F2028130C9F40B
:100A200082E08093F202FF91EF91DF91CF91BF912D
:100A3000AF919F918F917F916F915F914F913F9176
:100A40002F911F910F900BBE0F900FBE0F901F9014
:100A5000189594FF20C083E08093F20282E493E033
:100A60009093EF028093EE028091F2028530D9F6E6
:100A70008091F5029091F602039709F048C0109218
:100A8000CD0083E08093CC0080E18093C90086E0B4
:100A90008093CA00C8CF8330A9F4111134C084E018
:100AA0008093F2020E94ED0160933A0370933B033E
:100AB00080933C0390933D038091EE029091EF026E
:100AC0000196CECF843081F6C091EE02D091EF0234
:100AD0008881181759F00E94ED016093EA02709323
:100AE000EB028093EC029093ED0218832196D09351
:100AF000EF02C093EE028091F7029091F8028C17FA
:100B00009D0708F090CF85E08093F202ADCF82E0A0
:100B10008093F20281E080933E0385CFCF93DF93F1
:100B200000D000D000D01F92CDB7DEB7789484B546
:100B3000826084BD84B5816084BD85B5826085BDD9
:100B400085B5816085BD80916E00816080936E0067
:100B50001092810080918100826080938100809159
:100B6000810081608093810080918000816080930A
:100B700080008091B10084608093B1008091B000CA
:100B800081608093B0008091910082608093910099
:100B900080919100816080939100809190008160AC
:100BA000809390008091A10082608093A100809149
:100BB000A10081608093A1008091A000816080935A
:100BC000A000809121018260809321018091210108
:100BD00081608093210180912001816080932001B8
:100BE00080917A00846080937A0080917A0082609C
:100BF00080937A0080917A00816080937A0080915E
:100C00007A00806880937A001092C100E0917707A3
:100C1000F091780782E08083E0917307F091740788
:100C20001082E0917507F091760780E18083109241
:100C30007F07E0917B07F0917C0786E08083E0915D
:100C40007907F0917A07808180618083E09179074C
:100C5000F0917A07808188608083E0917907F09134
:100C60007A07808180688083E0917907F0917A0724
:100C700080818F7D808382E090E09093F402809366
:100C8000F30281E08093F2021092F1021092F002DE
:100C900082E493E09093EF028093EE020E94ED01D4
:100CA00060933A0370933B0380933C0390933D031E
:100CB00080913A0390913B03A0913C03B0913D0396
:100CC0008093EA029093EB02A093EC02B093ED02C2
:100CD00010923E0380E092E0909301028093000224
:100CE00080910002909101028E5B9C4F9093F802DC
:100CF0008093F702E2E4F3E0119225E0E334F20797
:100D0000D9F782E090E09093F6028093F50210927A
:100D1000C8008091F3029091F4029927FC01E253FC
:100D2000FE4F249188579E4FFC018491882399F0AF
:100D300090E0880F991FFC01EC5AFE4FA591B491E9
:100D4000FC01E259FE4F859194918FB7F894EC9194
:100D5000E22BEC938FBF1091F30260E0812F0E9491
:100D600061018091F5029091F6028130910509F0C0
:100D70007AC061E0812F0E94610180E290E090934F
:100D80000102809300021092CD0089E08093CC0094
:100D900088E48093C9008EE28093CA001092CE004E
:100DA00080E092E0909301028093000282E495E05B
:100DB0009093F8028093F70289E192E00E949703F2
:100DC00009EF12E09E012B5F3F4F3A8729870E946F
:100DD000ED014B015C01212C82E0382E87E697E083
:100DE0000E945702892B09F47CC187E697E00E9494
:100DF0003502E09139038A3019F08D3009F065C170
:100E0000EE2361F3F0E0E750FD4F10823A853F9307
:100E100049854F9382E392E09F938F931F930F93A3
:100E20000E94030A0F900F900F900F900F900F9059
:100E30000197B9F58D819E81AF81B8858F3F91056E
:100E4000A105B10509F068F5109241031092400325
:100E500080933F03309203022092020282E492E0E8
:100E60000E949703B4C0029709F09ACF82E493E0FE
:100E70009093EF028093EE0281E08093F202109251
:100E8000CD0083E08093CC0080E98093C90086E0A8
:100E90008093CA008091C80087FF82CF8091CE00E6
:100EA000F9CF21E030E02C0F3D1F3F932F933A857F
:100EB0003F9349854F938DE492E09F938F931F93C7
:100EC0000F930E94030A0FB6F894DEBF0FBECDBF8A
:100ED0000297C9F44D815E816F817885DB01CA017B
:100EE0000197A109B10981159240A105B10558F4F6
:100EF00089819A81AB81BC818F3F9105A105B105A4
:100F000009F008F467C04A854F9359855F9382E6DC
:100F100092E09F938F931F930F930E94030A0F9069
:100F20000F900F900F900F900F90019709F45FC0F2
:100F300041E050E04C0F5D1F5F934F935A855F93E4
:100F400089858F93E3E7F2E0FF93EF931F930F936D
:100F50000E94030A0FB6F894DEBF0FBECDBF029702
:100F600049F489819A81AB81BC81892B8A2B8B2B97
:100F700009F04FC061E872E089EF92E00E94FA093F
:100F8000892B09F08EC082E992E00E9446034090CE
:100F90005C0750905D07052C000C660877084AE056
:100FA000C301B20177FE0DC06DE287E697E00E94B3
:100FB0008F0266277727CB0164197509860997097F
:100FC0004AE00E94530386E192E00E944603109299
:100FD000390304CF21E030E03093410320934003F4
:100FE000509303024093020280933F0337CF8D81D9
:100FF0009E81AF81B8858F3F9105A105B10511F0A4
:1010000008F096CFE2E0F0E0F0934103E093400374
:10101000EBCF0E942D03CD80DE80EF80F884A8EE18
:10102000B3E0A70196010E94E0092B013C01480CA6
:10103000591C6A1C7B1C40925807509259076092B9
:101040005A0770925B0729813A814B815C810E942B
:10105000E009460E571E681E791E409250075092B6
:101060005107609252077092530781E090E0C114DB
:10107000D104E104F10411F482E090E090935D0763
:1010800080935C07CD28CE28CF2841F48092540766
:1010900090925507A0925607B092570788E892E0C1
:1010A000DFCE64EA72E089EF92E00E94FA09892BB0
:1010B00049F410925D0710925C070E942D0380EAAC
:1010C00092E0CECE8AEA92E0CBCEEF3308F07FCF2B
:1010D00091E09E0F90933903F0E0E750FD4F80833D
:1010E0007DCE80915C0790915D070197D9F4809146
:1010F000580790915907A0915A07B0915B0788163D
:101100009906AA06BB0670F082E090E090935D0716
:1011100080935C078092540790925507A0925607DF
:10112000B092570780915C0790915D07029709F094
:1011300077C08091500790915107A0915207B091CC
:10114000530788169906AA06BB0608F469C086EB01
:1011500092E00E9446038091540790915507A09118
:101160005607B0915707A5019401281B390B4A0B6C
:101170005B0BCA01B90128EE33E040E050E00E9469
:10118000B609CA01B9014AE00E94530386EC92E015
:101190000E94460360914B0570914C0580914D056E
:1011A00090914E054AE00E9453038FEC92E00E941A
:1011B00046036091470570914805809149059091DB
:1011C0004A054AE00E94530386ED92E00E944603DE
:1011D00060914305709144058091450590914605C5
:1011E0004AE00E9453038DED92E00E9446030E9464
:1011F000ED0180903A0390903B03A0903C03B090A7
:101200003D03681979098A099B094AE00E94530342
:1012100087EE92E00E94970310925D0710925C07A0
:1012200080913E03882309F45BC010923E038091B5
:101230005C0790915D07029709F052C081E092E04F
:10124000E2E4F3E0AFE4B5E001900D920197E1F73D
:1012500080914B0590914C05A0914D05B0914E05A4
:101260000196A11DB11D80934B0590934C05A09351
:101270004D05B0934E0520914003309141034091BC
:10128000020250910302A0913F03E0E5F5E080E007
:1012900092E06A2F2230310559F02130310531F4C6
:1012A000BF016F54754046175707E8F06A2F681B57
:1012B000719176131AC0019761F78091470590915B
:1012C0004805A0914905B0914A050196A11DB11D9F
:1012D0008093470590934805A0934905B0934A052C
:1012E0000E94FC0274CD60E0E3CF809143059091B1
:1012F0004405A0914505B09146050196A11DB11D7B
:101300008093430590934405A0934505B09346050B
:10131000E7CFE7E6F7E01382128288EE93E0A0E0E1
:10132000B0E084839583A683B78388E092E09183BD
:10133000808385EC90E09587848784EC90E09787A4
:10134000868780EC90E0918B808B81EC90E0938B92
:10135000828B82EC90E0958B848B86EC90E0978B6F
:10136000868B118E128E138E148E0895A1E21A2E82
:10137000AA1BBB1BFD010DC0AA1FBB1FEE1FFF1F39
:10138000A217B307E407F50720F0A21BB30BE40B89
:10139000F50B661F771F881F991F1A9469F76095D0
:1013A0007095809590959B01AC01BD01CF0108958A
:1013B000EE0FFF1F881F8BBF0790F691E02D199449
:1013C0000E94EB09A59F900DB49F900DA49F800DE6
:1013D000911D11240895A29FB001B39FC001A39F46
:1013E000700D811D1124911DB29F700D811D11245E
:1013F000911D0895FB01DC018D9101908019011070
:10140000D9F3990B0895CF93DF93CDB7DEB72E971D
:101410000FB6F894DEBF0FBECDBF85E08C838C89FC
:101420009D899A838983AE01485E5F4F6E897F896B
:10143000CE0101960E94CF0B2E960FB6F894DEBF18
:101440000FBECDBFDF91CF91089520FD09C0FC01F3
:1014500023FD05C022FF02C0738362835183408352
:10146000089544FD17C046FD1DC0DB01FC01AA0F15
:10147000BB1FEE1FFF1F1094D1F76A0F7B1F8E1F3B
:101480009F1F660F771F881F991F620F711D811D97
:10149000911D089533E0660F771F881F991F315003
:1014A000D1F7F3CF34E0F7CF0F931F93CF93DF93B0
:1014B0008C01C8010E94FC0CEC0197FD08C00E9441
:1014C000E80C892BB1F7B801CE010E94380DCE018E
:1014D000DF91CF911F910F9108958F929F92AF92BC
:1014E000BF92EF92FF920F931F93CF93DF938C01E4
:1014F000D62F7A01B22E0E94FC0C9C0133272B328E
:10150000310529F02D323105A9F46894B7F8D1508E
:1015100061F480E0DF91CF911F910F91FF90EF90E8
:10152000BF90AF909F908F900895C8010E94FC0CCF
:1015300097FDEFCFCB2DCD7F2B2D2073F9F480338A
:10154000E9F4AA24AA94AD0E89F0C8010E94FC0C0B
:1015500097FD0CC0282F2F7D283561F4C264D2502E
:1015600029F0C8010E94FC0C97FF08C0812C912C27
:1015700054011BC0B6FE2BC0C260DA2D812C912C09
:10158000540120ED280F283028F1C4FD09C02A306D
:1015900008F1C6FF05C02F7D3FEE320F3630C8F090
:1015A000B8010E94380DC1FFB4CFC7FF08C0B09486
:1015B000A09490948094811C911CA11CB11C2C2F90
:1015C000B501A401C7010E94250A81E0A3CFC26131
:1015D000D4CF27504C2FC501B4010E94310A4B01D2
:1015E0005C01C260D15009F3C8010E94FC0C97FF56
:1015F000C8CFD9CF7F928F929F92AF92BF92CF9256
:10160000DF92EF92FF920F931F93CF93DF93CDB7AB
:10161000DEB7A0970FB6F894DEBF0FBECDBF5C015A
:10162000962E7A01CE0101966C0180E2F6011192AC
:101630008A95E9F7F501B381890130E020E0712C4A
:10164000812CA0E041E050E0F801B3FD8591B3FFAB
:101650008191982F8F01811117C010E000E0C8011F
:10166000A0960FB6F894DEBF0FBECDBFDF91CF912D
:101670001F910F91FF90EF90DF90CF90BF90AF90B0
:101680009F908F907F9008958E3519F42115310524
:1016900041F1A21713064CF48D3549F18D3229F42E
:1016A000811006C0882483941DC0882009F464C07A
:1016B000E92FE695E695E695EC0DFD2DF11D892FB8
:1016C0008770BA0101C0660F8A95EAF78081682B9E
:1016D0006083791651F0971510F49F5FE9CF915010
:1016E000E7CFA1E02F5F3F4FAFCF812CFBCF88200A
:1016F00019F08E8180628E83AA2359F0F6019E0133
:101700002F5D3F4F8081809580833196E217F307EC
:10171000C9F788248394C5010E94FC0C97FD16C06C
:10172000E82FE695E695E695EC0DFD2DF11D20815F
:1017300030E0AC014770552702C0359527954A9592
:10174000E2F720FD06C0B5010E94380D882069F03F
:1017500084CFE114F10429F0F7018083C7010196D9
:101760007C019A94812C9110D6CFE114F10409F4F4
:1017700076CFF701108273CFE82FE695E695E695D0
:10178000EC0DFD2DF11D982F9770BA0101C0660F69
:101790009A95EAF79081692B6083782EA3CF5F92A8
:1017A0006F927F928F929F92AF92BF92CF92DF9271
:1017B000EF92FF920F931F93CF93DF936C01EB0196
:1017C0005A01FC0117821682512CF601E380FE01BA
:1017D000E3FC8591E3FE8191182FEF018823E9F066
:1017E00090E00E94E80C892B21F0C6010E94540A67
:1017F000ECCF153241F4FE01E3FC1591E3FE1191AB
:10180000EF01153269F4C6010E94FC0C97FD8EC0F1
:101810001817D9F2B6010E94380D852D90E08AC0C4
:1018200000E01A3231F4E3FC1591E3FE1191EF016F
:1018300001E0F12C20ED210F2A3048F101FF37C0E3
:10184000FF2059F31836B1F11C3609F43DC01123BD
:1018500021F3612F70E088E491E00E94F10C892B64
:10186000E1F2912C812C00FD06C0F5018080918071
:10187000C50102965C011E3679F5F6014681578155
:1018800070E060E0202FC4010E94250A9ECF026014
:101890006F2D70E090E080E040E20E94310AF62E69
:1018A000FE01E3FC1591E3FE1191EF01C3CFFF248C
:1018B000FA94C8CFFE01E3FC1591E3FE1191EF010C
:1018C000183609F0C4CF08600460FE01E3FC1591EE
:1018D000E3FE1191EF01BBCF1336C1F401FD02C04D
:1018E000FF24F394C6010E94FC0C97FD1FC08114D5
:1018F000910429F0F4018083C40101964C01FA940B
:10190000F110F0CF00FD61CF53945FCF1B3511F57F
:101910009E01A4016F2DC6010E94FA0AEC01892BD9
:1019200089F7F6018381807309F477CF8FEF9FEFFA
:10193000511073CFDF91CF911F910F91FF90EF90D6
:10194000DF90CF90BF90AF909F908F907F906F90DF
:101950005F900895C6010E94540A97FDE7CF1F3695
:10196000A9F130F4143641F0193639F0006405C09D
:101970001337B9F01537D1F70062202FA4016F2D6E
:10198000C6010E946D0A8111BDCFCBCF8114910495
:1019900029F0F4016082C40101964C01FA94FF2001
:1019A00071F0C6010E94FC0C3C0197FD08C00E942A
:1019B000E80C892B59F3B601C3010E94380D81143C
:1019C000910409F49FCFF40110829CCF0061D5CF20
:1019D00091110C94500D803219F089508550C8F740
:1019E0000895FC010590061621F00020D9F7C001EA
:1019F00008953197CF010895CF93DF93EC012B81A8
:101A000020FF1AC026FF0CC02F7B2B838E819F8165
:101A100001969F838E838A8190E0DF91CF91089514
:101A200022FF18C0E881F9818081082E000C990BF3
:101A3000009729F420622B838FEF9FEFEECF319632
:101A4000F983E8832E813F812F5F3F4F3F832E83B1
:101A50009927E3CFEA85FB85199597FFF3CF2B8173
:101A6000019621F080E2822B8B83E6CF80E1FBCFD1
:101A7000FB01238120FF11C026FD0FC08F3F980777
:101A800071F082832F7D206423832681378121504A
:101A9000310937832683992708958FEF9FEF0895A3
:0A1AA000992788270895F894FFCFD6
:101AAA0020000002000000008F02F9012602DC0279
:101ABA005702350249020D0A005245414459204550
:101ACA004E545445435F444D585F4D4F4E49544F11
:101ADA0052004558504543542052414D5020256CE0
:101AEA00750041434B2045585045435400455850D2
:101AFA004543542053484F525420256C7520256C79
:101B0A00750045585045435420434F4E53542025A1
:101B1A006C7500535441525420256C7520256C7500
:101B2A00005354415455530041434B20535441529E
:101B3A0054005354415455532073746174653D00E5
:101B4A0041434B2041424F52540045525220434F89
:101B5A004D4D414E4400524553554C5420736563D4
:101B6A006F6E64733D0020636865636B733D00208C
:101B7A00706173733D00206661696C3D00206E6F71
:0A1B8A005F646174613D006D73003B
:00000001FF
