:100000000C942E010C945F010C945F010C945F0121
:100010000C945F010C945F010C945F010C945F01E0
:100020000C945F010C945F010C945F010C945F01D0
:100030000C945F010C945F010C945F010C945F01C0
:100040000C945F010C945F010C945F010C945F01B0
:100050000C945F010C945F010C945F010C9480037D
:100060000C945F010C94F4030C94CA030C945F018C
:100070000C945F010C945F010C945F010C945F0180
:100080000C945F010C945F010C945F010C945F0170
:100090000C94CD040C94A5040C942A040C945F01D8
:1000A0000C945F010C945F010C945F010C945F0150
:1000B0000C945F010C945F010C945F010C945F0140
:1000C0000C945F010C945F010C945F010C945F0130
:1000D0000C945F010C945F010C945F010C945F0120
:1000E0000C945F010C94B0010C94E7010C943D0258
:1000F0000C9429020C94CB010C9428080C94B701A1
:100100000C94ED010C94D0020C9483020C94C70162
:100110000C9491010C94A8010C94B4010C94AC01C2
:100120000C94BD010C94D9010C944B020C94E30186
:100130000C9496010C94D5010C94DD010C941A02D8
:100140000C94CF010C94C1016364696E6F70737578
:1001500078585B0000002100240027002A002D00B1
:100160003000330001010000040107010A01000012
:100170002200250028002B002E003100340002014F
:100180000000050108010B01050505050705080824
:100190000808020202020A0A080804040404010111
:1001A0000101010101010303030303030303040726
:1001B00007070C0C0C0C0C0C0C0C020202020606BD
:1001C0000606060606060B0B0B0B0B0B0B0B0102B0
:1001D0001020200808102040102040800201020159
:1001E0000804020101020408102040808040201011
:1001F000080402018004020180402010080402016A
:1002000008040201010204081020408001020408D1
:100210001020408000000A0B02090C0D0E08070395
:1002200004010000000000000000000000000000C9
:1002300000000000000000000000000000000000BE
:10024000121110000000000000000000000000007B
:1002500000000000000000000000280811241FBE5C
:10026000CFEFD1E2DEBFCDBF00E00CBF12E0A0E0D7
:10027000B2E0E8E0F8E100E00BBF02C007900D92A9
:10028000A43BB107D9F727E0A4EBB2E001C01D926F
:10029000AA3AB207E1F711E0CEE2D1E000E006C0F1
:1002A00021970109802FFE010E948708CD32D107D6
:1002B00080E00807A9F70E947D050C94020C0C94BD
:1002C0000000282F30E0F901EC5EFD4F9491F90118
:1002D000E253FE4F449128573E4FF90124912223C7
:1002E00009F435C0992311F191509231F8F4E92FB6
:1002F000F0E08827E158FE4F8F4F0C948708B0013B
:10030000B4019101A801AC019601B701BD01C10181
:10031000C701CB01CF01D501D9019601DD01E30170
:10032000E701809180008F7780938000E22FF0E0DA
:10033000EE0FFF1FE259FE4FA591B4918FB7F894CD
:10034000EC91611148C040954E234C938FBF0895A6
:10035000809180008F7DE8CF80918000877FE4CFFF
:1003600084B58F7784BDE2CF84B58F7DFBCF80913C
:10037000B0008F778093B000D9CF8091B0008F7D8F
:10038000F9CF809190008F7780939000CFCF8091AC
:1003900090008F7DF9CF80919000877FF5CF80917D
:1003A000A0008F778093A000C1CF8091A0008F7DA7
:1003B000F9CF8091A000877FF5CF809120018F77C2
:1003C00080932001B3CF809120018F7DF9CF809160
:1003D0002001877FF5CF4E2BB8CFAF92BF92CF923F
:1003E000DF92EF92FF920F931F93CF93DF936C01F5
:1003F0007B018B01040F151FEB015E01AE18BF08D6
:10040000C017D10759F06991D601ED91FC91019087
:10041000F081E02DC6011995892B79F7C501DF918F
:10042000CF911F910F91FF90EF90DF90CF90BF90F1
:10043000AF900895FC01538D448D252F30E0842F1B
:1004400090E0821B930B541710F0CF9608950197FC
:100450000895FC01918D828D981761F0A28DAE0FE9
:10046000BF2FB11D5D968C91928D9F5F9F73928F70
:1004700090E008958FEF9FEF0895FC01918D828D9C
:10048000981731F0828DE80FF11D858D90E0089569
:100490008FEF9FEF0895FC01918D228D892F90E0C1
:1004A000805C9F4F821B91098F73992708958DE07F
:1004B00097E00E944B0221E0892B09F420E0822F73
:1004C0000895FC01A48DA80FB92FB11DA35ABF4FE9
:1004D0002C91848D90E001968F739927848FA68943
:1004E000B7892C93A089B1898C91837080648C9397
:1004F000938D848D981306C00288F389E02D808146
:100500008F7D80830895EF92FF920F931F93CF9377
:10051000DF93EC0181E0888F9B8D8C8D98131AC03E
:10052000E889F989808185FF15C09FB7F894EE8925
:10053000FF896083E889F989808183708064808382
:100540009FBF81E090E0DF91CF911F910F91FF90CD
:10055000EF900895F62E0B8D10E00F5F1F4F0F7375
:100560001127E02E8C8D8E110CC00FB607FCFACF30
:10057000E889F989808185FFF5CFCE010E9461026B
:10058000F1CFEB8DEC0FFD2FF11DE35AFF4FF08201
:100590009FB7F8940B8FEA89FB8980818062CFCF67
:1005A000CF93DF93EC01888D8823B9F0AA89BB89AA
:1005B000E889F9898C9185FD03C0808186FD0DC095
:1005C0000FB607FCF7CF8C9185FFF2CF808185FFB6
:1005D000EDCFCE010E946102E9CFDF91CF91089566
:1005E00080E090E0892B29F00E94570281110E943F
:1005F000000080E090E0892B49F080E090E0892BBA
:1006000029F00E94000081110E94000080E090E02B
:10061000892B49F080E090E0892B29F00E940000AE
:1006200081110E94000080E090E0892B49F080E079
:1006300090E0892B29F00E94000081110C940000A9
:100640000895FC0101900020E9F73197AF01481BA4
:10065000590BBC018DE097E00C94ED018F929F92B5
:10066000AF92BF920F931F93CF93DF93CDB7DEB7B7
:10067000A1970FB6F894DEBF0FBECDBF19A24230CE
:1006800008F44AE08E010F5D1F4F842E912CB12C8F
:10069000A12CA50194010E946508E62FB901CA01A9
:1006A000EA30F4F4E05DD801EE938D01232B242B86
:1006B000252B79F790E080E0109719F0CD010E948A
:1006C0002103A1960FB6F894DEBF0FBECDBFDF9118
:1006D000CF911F910F91BF90AF909F908F900895F1
:1006E000E95CE1CFCF93DF930E942103EC0184E129
:1006F00092E00E9421038C0F9D1FDF91CF910895FE
:100700001F920F920FB60F9211242F933F938F9346
:100710009F93AF93BF938091090790910A07A0918F
:100720000B07B0910C073091080723E0230F2D37FA
:1007300058F50196A11DB11D209308078093090764
:1007400090930A07A0930B07B0930C0780910407BE
:1007500090910507A0910607B09107070196A11D8A
:10076000B11D8093040790930507A0930607B093EB
:100770000707BF91AF919F918F913F912F910F905C
:100780000FBE0F901F90189526E8230F0296A11D0B
:10079000B11DD2CF1F920F920FB60F9211240BB63C
:1007A0000F922F933F934F935F936F937F938F930A
:1007B0009F93AF93BF93EF93FF938DE097E00E94D9
:1007C0006102FF91EF91BF91AF919F918F917F91C6
:1007D0006F915F914F913F912F910F900BBE0F90B2
:1007E0000FBE0F901F9018951F920F920FB60F9289
:1007F00011240BB60F922F938F939F93EF93FF9338
:10080000E0911D07F0911E078081E0912307F09190
:10081000240782FD1DC09081809126078F5F8F7312
:1008200020912707821741F0E0912607F0E0E35F6F
:10083000F84F958F80932607FF91EF919F918F91AD
:100840002F910F900BBE0F900FBE0F901F90189519
:100850008081F2CF1F920F920FB60F9211240BB628
:100860000F922F933F938F939F93EF93FF938091DA
:10087000BE029091BF022091C3023091C402213088
:10088000310509F58F3F9807F1F41092CD0089E00A
:100890008093CC0088E48093C9008EE28093CA00E4
:1008A0001092CE001092BF021092BE02FF91EF9103
:1008B0009F918F913F912F910F900BBE0F900FBE84
:1008C0000F901F9018950097A1F41092CD0083E02F
:1008D0008093CC0088E28093C9008EE08093CA00A8
:1008E0001092CE0081E090E09093BF028093BE0210
:1008F000DDCF20910002309101028217930774F43A
:100900009C012F5F3F4F3093BF022093BE02875060
:100910009D4FFC0180818093CE00C8CF1092CD0006
:1009200083E08093CC0088E48093C9008EE08093BC
:10093000CA00E091BE02F091BF02E750FD4F8081F6
:100940008093CE008FEF9FEFCFCF1F920F920FB605
:100950000F9211240BB60F922F933F934F935F93F7
:100960006F937F938F939F93AF93BF93EF93FF9377
:100970000E942A04FF91EF91BF91AF919F918F91B7
:100980007F916F915F914F913F912F910F900BBE8F
:100990000F900FBE0F901F9018951F920F920FB6D9
:1009A0000F9211240BB60F922F933F934F935F93A7
:1009B0006F937F938F939F93AF93BF93EF93FF9327
:1009C0002091C8008091CE009091C0029130B1F486
:1009D00082E08093C002FF91EF91BF91AF919F9110
:1009E0008F917F916F915F914F913F912F910F90D8
:1009F0000BBE0F900FBE0F901F90189524FF20C0C4
:100A000083E08093C00289EF92E09093BD028093CF
:100A1000BC028091C0028530F1F68091C3029091B2
:100A2000C402039709F062C01092CD0083E0809366
:100A3000CC0080E18093C90086E08093CA00CBCFD0
:100A40009330F1F481114EC084E08093C0022FB73F
:100A5000F8948091090790910A07A0910B07B09133
:100A60000C072FBF8093B8029093B902A093BA02EB
:100A7000B093BB028091BC029091BD020196C5CF9C
:100A8000943039F6E091BC02F091BD029081891753
:100A9000C1F09FB7F8944091090750910A076091FF
:100AA0000B0770910C079FBF4093B4025093B5029F
:100AB0006093B6027093B702E091BC02F091BD0260
:100AC00080838091BC029091BD0201969093BD02FB
:100AD0008093BC022091C5023091C60228173907C5
:100AE00008F097CF85E08093C00293CF82E0809397
:100AF000C00281E08093F8026ECFCF93DF9300D0E5
:100B000000D01F921F92CDB7DEB7789484B5826073
:100B100084BD84B5816084BD85B5826085BD85B5A1
:100B2000816085BD80916E00816080936E0010921F
:100B3000810080918100826080938100809181009A
:100B4000816080938100809180008160809380002B
:100B50008091B10084608093B1008091B000816089
:100B60008093B00080919100826080939100809189
:100B700091008160809391008091900081608093CA
:100B800090008091A10082608093A1008091A100DB
:100B900081608093A1008091A00081608093A0007B
:100BA00080912101826080932101809121018160E7
:100BB00080932101809120018160809320018091A8
:100BC0007A00846080937A0080917A0082608093BA
:100BD0007A0080917A00816080937A0080917A0017
:100BE000806880937A001092C100E0911D07F09117
:100BF0001E0782E08083E0911907F0911A071082A6
:100C0000E0911B07F0911C0780E18083109225077B
:100C1000E0912107F091220786E08083E0911F0791
:100C2000F0912007808180618083E0911F07F0911F
:100C30002007808188608083E0911F07F091200762
:100C4000808180688083E0911F07F0912007808178
:100C50008F7D80831092C4021092C30282E090E0E4
:100C60009093C2028093C10281E08093C0021092EF
:100C7000BF021092BE0289EF92E09093BD02809372
:100C8000BC022FB7F8948091090790910A07A091B0
:100C90000B07B0910C072FBF8093B8029093B90255
:100CA000A093BA02B093BB028091B8029091B902AE
:100CB000A091BA02B091BB028093B4029093B502A6
:100CC000A093B602B093B7021092F80280E092E0CF
:100CD00090930102809300028091000290910102A2
:100CE00087509D4F9093C6028093C502E9EFF2E0D2
:100CF000119224E0EA3FF207D9F782E090E0909366
:100D0000C4028093C3021092C8008091C1029091E6
:100D1000C2029927FC01E253FE4F249188579E4F4F
:100D2000FC018491882399F090E0880F991FFC01C1
:100D3000EC5AFE4FA591B491FC01E259FE4F85910A
:100D400094918FB7F894EC91E22BEC938FBF1091B4
:100D5000C10260E0812F0E9461018091C3029091E5
:100D6000C4028130910509F081C061E0812F0E94A9
:100D7000610180E290E09093010280930002109262
:100D8000CD0089E08093CC0088E48093C9008EE296
:100D90008093CA001092CE0080E092E0909301020E
:100DA0008093000289EF94E09093C6028093C5027D
:100DB00085E392E00E9472039E012F5F3F4F19016D
:100DC0007E0135E0E30EF11C9EE4C92E92E0D92E9F
:100DD0008DE097E00E944B02892B09F493C08DE0CF
:100DE00097E00E942902E091F7028D3019F08A30D5
:100DF00009F07CC0EE2361F3F0E0E953FD4F10826F
:100E00003F922F92FF92EF92DF92CF9287EC92E087
:100E10009F938F930E94B2080FB6F894DEBF0FBE67
:100E2000CDBF029709F040C08D819E81AF81B8850A
:100E30008093FE049093FF04A0930005B0930105F6
:100E400089819A81AB81BC818093FA049093FB04E1
:100E5000A093FC04B093FD04F1E0F09303078AE54E
:100E600092E00E9472031092F702B2CF029709F04B
:100E700093CF89EF92E09093BD028093BC0281E012
:100E80008093C0021092CD0083E08093CC0080E973
:100E90008093C90086E08093CA008091C80087FFD4
:100EA0007BCF8091CE00F9CF62E672E087EC92E0D2
:100EB0000E94A908892B51F480910307882319F017
:100EC00087E192E0CECF86E292E0CBCF6DE672E092
:100ED00087EC92E00E94A908892B29F4109203075D
:100EE00089E692E0BECF83E792E0BBCFEF3208F015
:100EF000BACF91E09E0F9093F702F0E0E953FD4FD7
:100F0000808366CF80910307882309F49EC0809177
:100F1000F802882309F499C01092F80281E092E067
:100F2000E9EFF2E0A2E0B5E001900D920197E1F760
:100F3000E3E0F5E08F0185EC882E8DE9982E8CE1B9
:100F4000A82E81E8B82ED8018D918D01A5019401BC
:100F5000282763E971E080E091E00E9455084B0189
:100F60005C01B7E003301B0771F7412C512C3201B3
:100F70008191480E511C611C711C27E0E330F2077F
:100F8000B9F78091FE049091FF04A0910005B09103
:100F9000010588159905AA05BB0509F056C0809181
:100FA000FA049091FB04A091FC04B091FD04841517
:100FB0009505A605B70509F048C08FE792E00E94A5
:100FC000210340E1C501B4010E942E0384E992E0AF
:100FD0000E94210340E1C301B2010E942E038AE96D
:100FE00092E00E9421036091030570E090E080E0B0
:100FF0004AE00E942E038FE992E00E942103609153
:10100000010670E090E080E04AE00E942E0386EA4C
:1010100092E00E9421036091020670E090E080E07F
:101020004AE00E942E038DEA92E00E942103609123
:10103000020770E090E080E04AE00E942E0384E125
:1010400092E00E942103109203070E94F002C0CE9A
:10105000EDE0F7E01382128288EE93E0A0E0B0E0CA
:1010600084839583A683B78386E092E0918380830F
:1010700085EC90E09587848784EC90E0978786875D
:1010800080EC90E0918B808B81EC90E0938B828B55
:1010900082EC90E0958B848B86EC90E0978B868B2E
:1010A000118E128E138E148E0895DB018F939F93F1
:1010B0000E948F08BF91AF91A29F800D911DA39FA9
:1010C000900DB29F900D11240895A1E21A2EAA1B33
:1010D000BB1BFD010DC0AA1FBB1FEE1FFF1FA217E8
:1010E000B307E407F50720F0A21BB30BE40BF50BE5
:1010F000661F771F881F991F1A9469F7609570956E
:10110000809590959B01AC01BD01CF010895EE0F34
:10111000FF1F881F8BBF0790F691E02D19940E9446
:101120009A08A59F900DB49F900DA49F800D911DCE
:1011300011240895A29FB001B39FC001A39F700D19
:10114000811D1124911DB29F700D811D1124911DCF
:101150000895FB01DC018D91019080190110D9F3F4
:10116000990B0895CF93DF93CDB7DEB72E970FB6C7
:10117000F894DEBF0FBECDBF85E08C838C899D893E
:101180009A838983AE01485E5F4F6E897F89CE0165
:1011900001960E947E0A2E960FB6F894DEBF0FBE0F
:1011A000CDBFDF91CF91089520FD09C0FC0123FD43
:1011B00005C022FF02C07383628351834083089578
:1011C00044FD17C046FD1DC0DB01FC01AA0FBB1F7B
:1011D000EE1FFF1F1094D1F76A0F7B1F8E1F9F1FFA
:1011E000660F771F881F991F620F711D811D911D4A
:1011F000089533E0660F771F881F991F3150D1F78C
:10120000F3CF34E0F7CF0F931F93CF93DF938C018D
:10121000C8010E94AB0BEC0197FD08C00E94970B20
:10122000892BB1F7B801CE010E94E70BCE01DF9107
:10123000CF911F910F9108958F929F92AF92BF927D
:10124000EF92FF920F931F93CF93DF938C01D62FD2
:101250007A01B22E0E94AB0B9C0133272B32310551
:1012600029F02D323105A9F46894B7F8D15061F412
:1012700080E0DF91CF911F910F91FF90EF90BF9091
:10128000AF909F908F900895C8010E94AB0B97FD7F
:10129000EFCFCB2DCD7F2B2D2073F9F48033E9F4E4
:1012A000AA24AA94AD0E89F0C8010E94AB0B97FD49
:1012B0000CC0282F2F7D283561F4C264D25029F04C
:1012C000C8010E94AB0B97FF08C0812C912C5401E0
:1012D0001BC0B6FE2BC0C260DA2D812C912C5401AC
:1012E00020ED280F283028F1C4FD09C02A3008F16C
:1012F000C6FF05C02F7D3FEE320F3630C8F0B80173
:101300000E94E70BC1FFB4CFC7FF08C0B094A09400
:1013100090948094811C911CA11CB11C2C2FB501B0
:10132000A401C7010E94D40881E0A3CFC261D4CF39
:1013300027504C2FC501B4010E94E0084B015C010D
:10134000C260D15009F3C8010E94AB0B97FFC8CF10
:10135000D9CF7F928F929F92AF92BF92CF92DF921E
:10136000EF92FF920F931F93CF93DF93CDB7DEB72A
:10137000A0970FB6F894DEBF0FBECDBF5C01962ECE
:101380007A01CE0101966C0180E2F60111928A95F4
:10139000E9F7F501B381890130E020E0712C812C5F
:1013A000A0E041E050E0F801B3FD8591B3FF8191E9
:1013B000982F8F01811117C010E000E0C801A0969E
:1013C0000FB6F894DEBF0FBECDBFDF91CF911F9156
:1013D0000F91FF90EF90DF90CF90BF90AF909F90D4
:1013E0008F907F9008958E3519F42115310541F1C4
:1013F000A21713064CF48D3549F18D3229F4811072
:1014000006C0882483941DC0882009F464C0E92F95
:10141000E695E695E695EC0DFD2DF11D892F87707B
:10142000BA0101C0660F8A95EAF78081682B608354
:10143000791651F0971510F49F5FE9CF9150E7CFDF
:10144000A1E02F5F3F4FAFCF812CFBCF882019F059
:101450008E8180628E83AA2359F0F6019E012F5D52
:101460003F4F8081809580833196E217F307C9F75B
:1014700088248394C5010E94AB0B97FD16C0E82F0A
:10148000E695E695E695EC0DFD2DF11D208130E009
:10149000AC014770552702C0359527954A95E2F76C
:1014A00020FD06C0B5010E94E70B882069F084CFBB
:1014B000E114F10429F0F7018083C70101967C0152
:1014C0009A94812C9110D6CFE114F10409F476CFCF
:1014D000F701108273CFE82FE695E695E695EC0DBF
:1014E000FD2DF11D982F9770BA0101C0660F9A95D6
:1014F000EAF79081692B6083782EA3CF5F926F9279
:101500007F928F929F92AF92BF92CF92DF92EF9293
:10151000FF920F931F93CF93DF936C01EB015A015E
:10152000FC0117821682512CF601E380FE01E3FCD8
:101530008591E3FE8191182FEF018823E9F090E077
:101540000E94970B892B21F0C6010E940309ECCF62
:10155000153241F4FE01E3FC1591E3FE1191EF0118
:10156000153269F4C6010E94AB0B97FD8EC01817A7
:10157000D9F2B6010E94E70B852D90E08AC000E009
:101580001A3231F4E3FC1591E3FE1191EF0101E011
:10159000F12C20ED210F2A3048F101FF37C0FF2048
:1015A00059F31836B1F11C3609F43DC0112321F36B
:1015B000612F70E088E491E00E94A00B892BE1F29A
:1015C000912C812C00FD06C0F50180809180C50121
:1015D00002965C011E3679F5F6014681578170E06E
:1015E00060E0202FC4010E94D4089ECF02606F2DBE
:1015F00070E090E080E040E20E94E008F62EFE01FC
:10160000E3FC1591E3FE1191EF01C3CFFF24FA949F
:10161000C8CFFE01E3FC1591E3FE1191EF011836EE
:1016200009F0C4CF08600460FE01E3FC1591E3FEFD
:101630001191EF01BBCF1336C1F401FD02C0FF24AD
:10164000F394C6010E94AB0B97FD1FC08114910457
:1016500029F0F4018083C40101964C01FA94F11041
:10166000F0CF00FD61CF53945FCF1B3511F59E0184
:10167000A4016F2DC6010E94A909EC01892B89F7ED
:10168000F6018381807309F477CF8FEF9FEF5110BC
:1016900073CFDF91CF911F910F91FF90EF90DF906B
:1016A000CF90BF90AF909F908F907F906F905F9002
:1016B0000895C6010E94030997FDE7CF1F36A9F1DF
:1016C00030F4143641F0193639F0006405C0133790
:1016D000B9F01537D1F70062202FA4016F2DC60194
:1016E0000E941C098111BDCFCBCF8114910429F038
:1016F000F4016082C40101964C01FA94FF2071F05C
:10170000C6010E94AB0B3C0197FD08C00E94970BDD
:10171000892B59F3B601C3010E94E70B8114910490
:1017200009F49FCFF40110829CCF0061D5CF9111B5
:101730000C94FF0B803219F089508550C8F708953A
:10174000FC010590061621F00020D9F7C00108958C
:101750003197CF010895CF93DF93EC012B8120FFC8
:101760001AC026FF0CC02F7B2B838E819F81019690
:101770009F838E838A8190E0DF91CF91089522FF2D
:1017800018C0E881F9818081082E000C990B009720
:1017900029F420622B838FEF9FEFEECF3196F983F0
:1017A000E8832E813F812F5F3F4F3F832E83992710
:1017B000E3CFEA85FB85199597FFF3CF2B8101963F
:1017C00021F080E2822B8B83E6CF80E1FBCFFB010F
:1017D000238120FF11C026FD0FC08F3F980771F0B5
:1017E00082832F7D20642383268137812150310914
:1017F00037832683992708958FEF9FEF08959927C0
:0818000088270895F894FFCF3A
:101808002000000000008302ED011A02D0024B0202
:1018180029023D020D0A0053544154555320617268
:101828006D65643D31005354415455532061726DC8
:1018380065643D3000524541445920454E54544555
:10184800435F444D585F4D4F4E49544F52004152EB
:101858004D20256C7820256C780041434B2041525F
:101868004D005354415455530041434B2041424F7E
:1018780052540045525220636F6D6D616E64004F83
:10188800425320726573756C743D50415353206602
:101898006E763D002073756D3D002063313D00205C
:1018A800633235353D0020633235363D00206335DF
:0418B80031323D008C
:00000001FF
