:020000040000FA
:100000000C942E010C945F010C945F010C945F0121
:100010000C945F010C945F010C945F010C945F01E0
:100020000C945F010C945F010C945F010C945F01D0
:100030000C945F010C945F010C945F010C945F01C0
:100040000C945F010C945F010C945F010C945F01B0
:100050000C945F010C945F010C945F010C94A50358
:100060000C945F010C9419040C94EF030C945F0141
:100070000C945F010C945F010C945F010C945F0180
:100080000C945F010C945F010C945F010C945F0170
:100090000C94F2040C94CA040C944F040C945F0169
:1000A0000C945F010C945F010C945F010C945F0150
:1000B0000C945F010C945F010C945F010C945F0140
:1000C0000C945F010C945F010C945F010C945F0130
:1000D0000C945F010C945F010C945F010C945F0120
:1000E0000C945F010C94DD010C94DC020C94B401BF
:1000F0000C94A8010C94B7010C9457020C9449027B
:100100000C9491010C94AC010C94D9010C94D50180
:100110000C94BD010C94C7010C94E7010C94CF0121
:100120000C9426020C94F9010C94CB010C948F02D0
:100130000C94B0010C9489090C94C1010C949601A3
:100140000C9435020C94E3016364696E6F707375EF
:1001500078585B0000002100240027002A002D00B1
:100160003000330001010000040107010A01000012
:100170002200250028002B002E003100340002014F
:100180000000050108010B01050505050705080824
:100190000808020202020A0A080804040404010111
:1001A0000101010101010303030303030303040726
:1001B00007070C0C0C0C0C0C0C0C020202020606BD
:1001C0000606060606060B0B0B0B0B0B0B0B0102B0
:1001D0001020200808102040102040800201020159
:1001E0000804020101020408102040808040201011
:1001F000080402018004020180402010080402016A
:1002000008040201010204081020408001020408D1
:100210001020408000000A0B02090C0D0E08070395
:1002200004010000000000000000000000000000C9
:1002300000000000000000000000000000000000BE
:10024000121110000000000000000000000000007B
:1002500000000000000000000000890911241FBEFA
:10026000CFEFD1E2DEBFCDBF00E00CBF12E0A0E0D7
:10027000B2E0EAEAFAE100E00BBF02C007900D929B
:10028000AA3EB107D9F728E0AAEEB2E001C01D925C
:10029000A430B207E1F711E0CEE2D1E000E006C001
:1002A00021970109802FFE010E94D809CD32D10784
:1002B00080E00807A9F70E948E050C94530D0C945A
:1002C0000000282F30E0F901EC5EFD4F9491F90118
:1002D000E253FE4F449128573E4FF90124912223C7
:1002E00009F435C0992311F191509231F8F4E92FB6
:1002F000F0E08827E158FE4F8F4F0C94D809B001E9
:10030000B4019101A801AC019601B701BD01C10181
:10031000C701CB01CF01D501D9019601DD01E30170
:10032000E701809180008F7780938000E22FF0E0DA
:10033000EE0FFF1FE259FE4FA591B4918FB7F894CD
:10034000EC91611148C040954E234C938FBF0895A6
:10035000809180008F7DE8CF80918000877FE4CFFF
:1003600084B58F7784BDE2CF84B58F7DFBCF80913C
:10037000B0008F778093B000D9CF8091B0008F7D8F
:10038000F9CF809190008F7780939000CFCF8091AC
:1003900090008F7DF9CF80919000877FF5CF80917D
:1003A000A0008F778093A000C1CF8091A0008F7DA7
:1003B000F9CF8091A000877FF5CF809120018F77C2
:1003C00080932001B3CF809120018F7DF9CF809160
:1003D0002001877FF5CF4E2BB8CF2FB7F8946091CF
:1003E00063077091640780916507909166072FBF3E
:1003F0000895AF92BF92CF92DF92EF92FF920F9348
:100400001F93CF93DF936C017B018B01040F151FAA
:10041000EB015E01AE18BF08C017D10759F0699112
:10042000D601ED91FC910190F081E02DC601199566
:10043000892B79F7C501DF91CF911F910F91FF9023
:10044000EF90DF90CF90BF90AF900895FC01538D57
:10045000448D252F30E0842F90E0821B930B54179E
:1004600010F0CF96089501970895FC01918D828D2B
:10047000981761F0A28DAE0FBF2FB11D5D968C91C4
:10048000928D9F5F9F73928F90E008958FEF9FEF03
:100490000895FC01918D828D981731F0828DE80FBF
:1004A000F11D858D90E008958FEF9FEF0895FC0179
:1004B000918D228D892F90E0805C9F4F821B910946
:1004C0008F739927089587E697E00E94570221E0ED
:1004D000892B09F420E0822F0895FC01A48DA80F38
:1004E000B92FB11DA35ABF4F2C91848D90E0019676
:1004F0008F739927848FA689B7892C93A089B18996
:100500008C91837080648C93938D848D981306C036
:100510000288F389E02D80818F7D80830895EF929A
:10052000FF920F931F93CF93DF93EC0181E0888FAD
:100530009B8D8C8D98131AC0E889F989808185FF7D
:1005400015C09FB7F894EE89FF896083E889F9891F
:1005500080818370806480839FBF81E090E0DF9121
:10056000CF911F910F91FF90EF900895F62E0B8D74
:1005700010E00F5F1F4F0F731127E02E8C8D8E112F
:100580000CC00FB607FCFACFE889F989808185FF96
:10059000F5CFCE010E946D02F1CFEB8DEC0FFD2F58
:1005A000F11DE35AFF4FF0829FB7F8940B8FEA8951
:1005B000FB8980818062CFCFCF93DF93EC01888D60
:1005C0008823B9F0AA89BB89E889F9898C9185FDCE
:1005D00003C0808186FD0DC00FB607FCF7CF8C915C
:1005E00085FFF2CF808185FFEDCFCE010E946D02A5
:1005F000E9CFDF91CF91089580E090E0892B29F039
:100600000E94630281110E94000080E090E0892B2B
:1006100049F080E090E0892B29F00E9400008111D0
:100620000E94000080E090E0892B49F080E090E09B
:10063000892B29F00E94000081110E94000080E0B7
:1006400090E0892B49F080E090E0892B29F00E940E
:10065000000081110C94000008951092430510923F
:1006600044051092450510924605109247051092D8
:1006700048051092490510924A0510924B051092B8
:100680004C0510924D0510924E050895FC01019005
:100690000020E9F73197AF01481B590BBC0187E6F1
:1006A00097E00C94F9018F929F92AF92BF920F93B3
:1006B0001F93CF93DF93CDB7DEB7A1970FB6F89412
:1006C000DEBF0FBECDBF19A2423008F44AE08E0152
:1006D0000F5D1F4F842E912CB12CA12CA5019401EC
:1006E0000E94B609E62FB901CA01EA30F4F4E05DD0
:1006F000D801EE938D01232B242B252B79F790E045
:1007000080E0109719F0CD010E944603A1960FB624
:10071000F894DEBF0FBECDBFDF91CF911F910F9137
:10072000BF90AF909F908F900895E95CE1CFCF93F9
:10073000DF930E944603EC0186E192E00E944603AB
:100740008C0F9D1FDF91CF9108951F920F920FB6CE
:100750000F9211242F933F938F939F93AF93BF9347
:100760008091630790916407A0916507B091660737
:100770003091620723E0230F2D3758F50196A11D14
:10078000B11D209362078093630790936407A09341
:100790006507B093660780915E0790915F07A0910F
:1007A0006007B09161070196A11DB11D80935E079E
:1007B00090935F07A0936007B0936107BF91AF91DB
:1007C0009F918F913F912F910F900FBE0F901F908F
:1007D000189526E8230F0296A11DB11DD2CF1F92B6
:1007E0000F920FB60F9211240BB60F922F933F93D7
:1007F0004F935F936F937F938F939F93AF93BF9329
:10080000EF93FF9387E697E00E946D02FF91EF91CF
:10081000BF91AF919F918F917F916F915F914F9118
:100820003F912F910F900BBE0F900FBE0F901F9016
:1008300018951F920F920FB60F9211240BB60F92BC
:100840002F938F939F93EF93FF93E0917707F0910E
:1008500078078081E0917D07F0917E0782FD1DC0C1
:100860009081809180078F5F8F732091810782171D
:1008700041F0E0918007F0E0E959F84F958F8093BF
:100880008007FF91EF919F918F912F910F900BBE59
:100890000F900FBE0F901F9018958081F2CF1F927E
:1008A0000F920FB60F9211240BB60F922F933F9316
:1008B0008F939F93EF93FF938091F0029091F102B9
:1008C0002091F5023091F6022130310509F58F3F74
:1008D0009807F1F41092CD0089E08093CC0088E471
:1008E0008093C9008EE28093CA001092CE001092CD
:1008F000F1021092F002FF91EF919F918F913F9141
:100900002F910F900BBE0F900FBE0F901F90189558
:100910000097A1F41092CD0083E08093CC0088E290
:100920008093C9008EE08093CA001092CE0081E0CF
:1009300090E09093F1028093F002DDCF20910002CD
:10094000309101028217930774F49C012F5F3F4F8F
:100950003093F1022093F0028E5B9C4FFC0180816A
:100960008093CE00C8CF1092CD0083E08093CC005E
:1009700088E48093C9008EE08093CA00E091F00281
:10098000F091F102EE5BFC4F80818093CE008FEFFF
:100990009FEFCFCF1F920F920FB60F9211240BB67D
:1009A0000F922F933F934F935F936F937F938F9308
:1009B0009F93AF93BF93EF93FF930E944F04FF91D8
:1009C000EF91BF91AF919F918F917F916F915F91C7
:1009D0004F913F912F910F900BBE0F900FBE0F9034
:1009E0001F9018951F920F920FB60F9211240BB6FD
:1009F0000F921F932F933F934F935F936F937F9328
:100A00008F939F93AF93BF93CF93DF93EF93FF9316
:100A10009091C8001091CE008091F2028130C9F40B
:100A200082E08093F202FF91EF91DF91CF91BF912D
:100A3000AF919F918F917F916F915F914F913F9176
:100A40002F911F910F900BBE0F900FBE0F901F9014
:100A5000189594FF20C083E08093F20282E493E033
:100A60009093EF028093EE028091F2028530D9F6E6
:100A70008091F5029091F602039709F048C0109218
:100A8000CD0083E08093CC0080E18093C90086E0B4
:100A90008093CA00C8CF8330A9F4111134C084E018
:100AA0008093F2020E94ED0160933A0370933B033E
:100AB00080933C0390933D038091EE029091EF026E
:100AC0000196CECF843081F6C091EE02D091EF0234
:100AD0008881181759F00E94ED016093EA02709323
:100AE000EB028093EC029093ED0218832196D09351
:100AF000EF02C093EE028091F7029091F8028C17FA
:100B00009D0708F090CF85E08093F202ADCF82E0A0
:100B10008093F20281E080933E0385CFCF93DF93F1
:100B200000D000D000D01F92CDB7DEB7789484B546
:100B3000826084BD84B5816084BD85B5826085BDD9
:100B400085B5816085BD80916E00816080936E0067
:100B50001092810080918100826080938100809159
:100B6000810081608093810080918000816080930A
:100B700080008091B10084608093B1008091B000CA
:100B800081608093B0008091910082608093910099
:100B900080919100816080939100809190008160AC
:100BA000809390008091A10082608093A100809149
:100BB000A10081608093A1008091A000816080935A
:100BC000A000809121018260809321018091210108
:100BD00081608093210180912001816080932001B8
:100BE00080917A00846080937A0080917A0082609C
:100BF00080937A0080917A00816080937A0080915E
:100C00007A00806880937A001092C100E0917707A3
:100C1000F091780782E08083E0917307F091740788
:100C20001082E0917507F091760780E18083109241
:100C30007F07E0917B07F0917C0786E08083E0915D
:100C40007907F0917A07808180618083E09179074C
:100C5000F0917A07808188608083E0917907F09134
:100C60007A07808180688083E0917907F0917A0724
:100C700080818F7D808382E090E09093F402809366
:100C8000F30281E08093F2021092F1021092F002DE
:100C900082E493E09093EF028093EE020E94ED01D4
:100CA00060933A0370933B0380933C0390933D031E
:100CB00080913A0390913B03A0913C03B0913D0396
:100CC0008093EA029093EB02A093EC02B093ED02C2
:100CD00010923E0380E092E0909301028093000224
:100CE00080910002909101028E5B9C4F9093F802DC
:100CF0008093F702E2E4F3E0119225E0E334F20797
:100D0000D9F782E090E09093F6028093F50210927A
:100D1000C8008091F3029091F4029927FC01E253FC
:100D2000FE4F249188579E4FFC018491882399F0AF
:100D300090E0880F991FFC01EC5AFE4FA591B491E9
:100D4000FC01E259FE4F859194918FB7F894EC9194
:100D5000E22BEC938FBF1091F30260E0812F0E9491
:100D600061018091F5029091F6028130910509F0C0
:100D70007AC061E0812F0E94610180E290E090934F
:100D80000102809300021092CD0089E08093CC0094
:100D900088E48093C9008EE28093CA001092CE004E
:100DA00080E092E0909301028093000282E495E05B
:100DB0009093F8028093F70289E192E00E949703F2
:100DC00009EF12E09E012B5F3F4F3A8729870E946F
:100DD000ED014B015C01212C82E0382E87E697E083
:100DE0000E945702892B09F47CC187E697E00E9494
:100DF0003502E09139038A3019F08D3009F065C170
:100E0000EE2361F3F0E0E750FD4F10823A853F9307
:100E100049854F9382E392E09F938F931F930F93A3
:100E20000E94030A0F900F900F900F900F900F9059
:100E30000197B9F58D819E81AF81B8858F3F91056E
:100E4000A105B10509F068F5109241031092400325
:100E500080933F03309203022092020282E492E0E8
:100E60000E949703B4C0029709F09ACF82E493E0FE
:100E70009093EF028093EE0281E08093F202109251
:100E8000CD0083E08093CC0080E98093C90086E0A8
:100E90008093CA008091C80087FF82CF8091CE00E6
:100EA000F9CF21E030E02C0F3D1F3F932F933A857F
:100EB0003F9349854F938DE492E09F938F931F93C7
:100EC0000F930E94030A0FB6F894DEBF0FBECDBF8A
:100ED0000297C9F44D815E816F817885DB01CA017B
:100EE0000197A109B10981159240A105B10558F4F6
:100EF00089819A81AB81BC818F3F9105A105B105A4
:100F000009F008F467C04A854F9359855F9382E6DC
:100F100092E09F938F931F930F930E94030A0F9069
:100F20000F900F900F900F900F90019709F45FC0F2
:100F300041E050E04C0F5D1F5F934F935A855F93E4
:100F400089858F93E3E7F2E0FF93EF931F930F936D
:100F50000E94030A0FB6F894DEBF0FBECDBF029702
:100F600049F489819A81AB81BC81892B8A2B8B2B97
:100F700009F04FC061E872E089EF92E00E94FA093F
:100F8000892B09F08EC082E992E00E9446034090CE
:100F90005C0750905D07052C000C660877084AE056
:100FA000C301B20177FE0DC06DE287E697E00E94B3
:100FB0008F0266277727CB0164197509860997097F
:100FC0004AE00E94530386E192E00E944603109299
:100FD000390304CF21E030E03093410320934003F4
:100FE000509303024093020280933F0337CF8D81D9
:100FF0009E81AF81B8858F3F9105A105B10511F0A4
:1010000008F096CFE2E0F0E0F0934103E093400374
:10101000EBCF0E942D03CD80DE80EF80F884A8EE18
:10102000B3E0A70196010E94E0092B013C01480CA6
:10103000591C6A1C7B1C40925807509259076092B9
:101040005A0770925B0729813A814B815C810E942B
:10105000E009460E571E681E791E409250075092B6
:101060005107609252077092530781E090E0C114DB
:10107000D104E104F10411F482E090E090935D0763
:1010800080935C07CD28CE28CF2841F48092540766
:1010900090925507A0925607B092570788E892E0C1
:1010A000DFCE64EA72E089EF92E00E94FA09892BB0
:1010B00049F410925D0710925C070E942D0380EAAC
:1010C00092E0CECE8AEA92E0CBCEEF3308F07FCF2B
:1010D00091E09E0F90933903F0E0E750FD4F80833D
:1010E0007DCE80915C0790915D070197D9F4809146
:1010F000580790915907A0915A07B0915B0788163D
:101100009906AA06BB0670F082E090E090935D0716
:1011100080935C078092540790925507A0925607DF
:10112000B092570780915C0790915D07029709F094
:1011300077C08091500790915107A0915207B091CC
:10114000530788169906AA06BB0608F469C086EB01
:1011500092E00E9446038091540790915507A09118
:101160005607B0915707A5019401281B390B4A0B6C
:101170005B0BCA01B90128EE33E040E050E00E9469
:10118000B609CA01B9014AE00E94530386EC92E015
:101190000E94460360914B0570914C0580914D056E
:1011A00090914E054AE00E9453038FEC92E00E941A
:1011B00046036091470570914805809149059091DB
:1011C0004A054AE00E94530386ED92E00E944603DE
:1011D00060914305709144058091450590914605C5
:1011E0004AE00E9453038DED92E00E9446030E9464
:1011F000ED0180903A0390903B03A0903C03B090A7
:101200003D03681979098A099B094AE00E94530342
:1012100087EE92E00E94970310925D0710925C07A0
:1012200080913E03882309F45BC010923E038091B5
:101230005C0790915D07029709F052C081E092E04F
:10124000E2E4F3E0AFE4B5E001900D920197E1F73D
:1012500080914B0590914C05A0914D05B0914E05A4
:101260000196A11DB11D80934B0590934C05A09351
:101270004D05B0934E0520914003309141034091BC
:10128000020250910302A0913F03E0E5F5E080E007
:1012900092E06A2F2230310559F02130310531F4C6
:1012A000BF016F54754046175707E8F06A2F681B57
:1012B000719176131AC0019761F78091470590915B
:1012C0004805A0914905B0914A050196A11DB11D9F
:1012D0008093470590934805A0934905B0934A052C
:1012E0000E94FC0274CD60E0E3CF809143059091B1
:1012F0004405A0914505B09146050196A11DB11D7B
:101300008093430590934405A0934505B09346050B
:10131000E7CFE7E6F7E01382128288EE93E0A0E0E1
:10132000B0E084839583A683B78388E092E09183BD
:10133000808385EC90E09587848784EC90E09787A4
:10134000868780EC90E0918B808B81EC90E0938B92
:10135000828B82EC90E0958B848B86EC90E0978B6F
:10136000868B118E128E138E148E0895A1E21A2E82
:10137000AA1BBB1BFD010DC0AA1FBB1FEE1FFF1F39
:10138000A217B307E407F50720F0A21BB30BE40B89
:10139000F50B661F771F881F991F1A9469F76095D0
:1013A0007095809590959B01AC01BD01CF0108958A
:1013B000EE0FFF1F881F8BBF0790F691E02D199449
:1013C0000E94EB09A59F900DB49F900DA49F800DE6
:1013D000911D11240895A29FB001B39FC001A39F46
:1013E000700D811D1124911DB29F700D811D11245E
:1013F000911D0895FB01DC018D9101908019011070
:10140000D9F3990B0895CF93DF93CDB7DEB72E971D
:101410000FB6F894DEBF0FBECDBF85E08C838C89FC
:101420009D899A838983AE01485E5F4F6E897F896B
:10143000CE0101960E94CF0B2E960FB6F894DEBF18
:101440000FBECDBFDF91CF91089520FD09C0FC01F3
:1014500023FD05C022FF02C0738362835183408352
:10146000089544FD17C046FD1DC0DB01FC01AA0F15
:10147000BB1FEE1FFF1F1094D1F76A0F7B1F8E1F3B
:101480009F1F660F771F881F991F620F711D811D97
:10149000911D089533E0660F771F881F991F315003
:1014A000D1F7F3CF34E0F7CF0F931F93CF93DF93B0
:1014B0008C01C8010E94FC0CEC0197FD08C00E9441
:1014C000E80C892BB1F7B801CE010E94380DCE018E
:1014D000DF91CF911F910F9108958F929F92AF92BC
:1014E000BF92EF92FF920F931F93CF93DF938C01E4
:1014F000D62F7A01B22E0E94FC0C9C0133272B328E
:10150000310529F02D323105A9F46894B7F8D1508E
:1015100061F480E0DF91CF911F910F91FF90EF90E8
:10152000BF90AF909F908F900895C8010E94FC0CCF
:1015300097FDEFCFCB2DCD7F2B2D2073F9F480338A
:10154000E9F4AA24AA94AD0E89F0C8010E94FC0C0B
:1015500097FD0CC0282F2F7D283561F4C264D2502E
:1015600029F0C8010E94FC0C97FF08C0812C912C27
:1015700054011BC0B6FE2BC0C260DA2D812C912C09
:10158000540120ED280F283028F1C4FD09C02A306D
:1015900008F1C6FF05C02F7D3FEE320F3630C8F090
:1015A000B8010E94380DC1FFB4CFC7FF08C0B09486
:1015B000A09490948094811C911CA11CB11C2C2F90
:1015C000B501A401C7010E94250A81E0A3CFC26131
:1015D000D4CF27504C2FC501B4010E94310A4B01D2
:1015E0005C01C260D15009F3C8010E94FC0C97FF56
:1015F000C8CFD9CF7F928F929F92AF92BF92CF9256
:10160000DF92EF92FF920F931F93CF93DF93CDB7AB
:10161000DEB7A0970FB6F894DEBF0FBECDBF5C015A
:10162000962E7A01CE0101966C0180E2F6011192AC
:101630008A95E9F7F501B381890130E020E0712C4A
:10164000812CA0E041E050E0F801B3FD8591B3FFAB
:101650008191982F8F01811117C010E000E0C8011F
:10166000A0960FB6F894DEBF0FBECDBFDF91CF912D
:101670001F910F91FF90EF90DF90CF90BF90AF90B0
:101680009F908F907F9008958E3519F42115310524
:1016900041F1A21713064CF48D3549F18D3229F42E
:1016A000811006C0882483941DC0882009F464C07A
:1016B000E92FE695E695E695EC0DFD2DF11D892FB8
:1016C0008770BA0101C0660F8A95EAF78081682B9E
:1016D0006083791651F0971510F49F5FE9CF915010
:1016E000E7CFA1E02F5F3F4FAFCF812CFBCF88200A
:1016F00019F08E8180628E83AA2359F0F6019E0133
:101700002F5D3F4F8081809580833196E217F307EC
:10171000C9F788248394C5010E94FC0C97FD16C06C
:10172000E82FE695E695E695EC0DFD2DF11D20815F
:1017300030E0AC014770552702C0359527954A9592
:10174000E2F720FD06C0B5010E94380D882069F03F
:1017500084CFE114F10429F0F7018083C7010196D9
:101760007C019A94812C9110D6CFE114F10409F4F4
:1017700076CFF701108273CFE82FE695E695E695D0
:10178000EC0DFD2DF11D982F9770BA0101C0660F69
:101790009A95EAF79081692B6083782EA3CF5F92A8
:1017A0006F927F928F929F92AF92BF92CF92DF9271
:1017B000EF92FF920F931F93CF93DF936C01EB0196
:1017C0005A01FC0117821682512CF601E380FE01BA
:1017D000E3FC8591E3FE8191182FEF018823E9F066
:1017E00090E00E94E80C892B21F0C6010E94540A67
:1017F000ECCF153241F4FE01E3FC1591E3FE1191AB
:10180000EF01153269F4C6010E94FC0C97FD8EC0F1
:101810001817D9F2B6010E94380D852D90E08AC0C4
:1018200000E01A3231F4E3FC1591E3FE1191EF016F
:1018300001E0F12C20ED210F2A3048F101FF37C0E3
:10184000FF2059F31836B1F11C3609F43DC01123BD
:1018500021F3612F70E088E491E00E94F10C892B64
:10186000E1F2912C812C00FD06C0F5018080918071
:10187000C50102965C011E3679F5F6014681578155
:1018800070E060E0202FC4010E94250A9ECF026014
:101890006F2D70E090E080E040E20E94310AF62E69
:1018A000FE01E3FC1591E3FE1191EF01C3CFFF248C
:1018B000FA94C8CFFE01E3FC1591E3FE1191EF010C
:1018C000183609F0C4CF08600460FE01E3FC1591EE
:1018D000E3FE1191EF01BBCF1336C1F401FD02C04D
:1018E000FF24F394C6010E94FC0C97FD1FC08114D5
:1018F000910429F0F4018083C40101964C01FA940B
:10190000F110F0CF00FD61CF53945FCF1B3511F57F
:101910009E01A4016F2DC6010E94FA0AEC01892BD9
:1019200089F7F6018381807309F477CF8FEF9FEFFA
:10193000511073CFDF91CF911F910F91FF90EF90D6
:10194000DF90CF90BF90AF909F908F907F906F90DF
:101950005F900895C6010E94540A97FDE7CF1F3695
:10196000A9F130F4143641F0193639F0006405C09D
:101970001337B9F01537D1F70062202FA4016F2D6E
:10198000C6010E946D0A8111BDCFCBCF8114910495
:1019900029F0F4016082C40101964C01FA94FF2001
:1019A00071F0C6010E94FC0C3C0197FD08C00E942A
:1019B000E80C892B59F3B601C3010E94380D81143C
:1019C000910409F49FCFF40110829CCF0061D5CF20
:1019D00091110C94500D803219F089508550C8F740
:1019E0000895FC010590061621F00020D9F7C001EA
:1019F00008953197CF010895CF93DF93EC012B81A8
:101A000020FF1AC026FF0CC02F7B2B838E819F8165
:101A100001969F838E838A8190E0DF91CF91089514
:101A200022FF18C0E881F9818081082E000C990BF3
:101A3000009729F420622B838FEF9FEFEECF319632
:101A4000F983E8832E813F812F5F3F4F3F832E83B1
:101A50009927E3CFEA85FB85199597FFF3CF2B8173
:101A6000019621F080E2822B8B83E6CF80E1FBCFD1
:101A7000FB01238120FF11C026FD0FC08F3F980777
:101A800071F082832F7D206423832681378121504A
:101A9000310937832683992708958FEF9FEF0895A3
:101AA000992788270895F894FFCF200000020000AE
:101AB00000008F02F9012602DC02570235024902BA
:101AC0000D0A00524541445920454E545445435F48
:101AD000444D585F4D4F4E49544F52004558504564
:101AE00043542052414D5020256C750041434B20FA
:101AF0004558504543540045585045435420534899
:101B00004F525420256C7520256C75004558504562
:101B1000435420434F4E535420256C750053544179
:101B2000525420256C7520256C7500535441545532
:101B3000530041434B205354415254005354415499
:101B400055532073746174653D0041434B204142FD
:101B50004F52540045525220434F4D4D414E440088
:101B6000524553554C54207365636F6E64733D004A
:101B700020636865636B733D0020706173733D0083
:101B8000206661696C3D00206E6F5F646174613D29
:041B9000006D730071
:020000040003F7
:10E000000D9489F10D94B2F10D94B2F10D94B2F129
:10E010000D94B2F10D94B2F10D94B2F10D94B2F1F0
:10E020000D94B2F10D94B2F10D94B2F10D94B2F1E0
:10E030000D94B2F10D94B2F10D94B2F10D94B2F1D0
:10E040000D94B2F10D94B2F10D94B2F10D94B2F1C0
:10E050000D94B2F10D94B2F10D94B2F10D94B2F1B0
:10E060000D94B2F10D94B2F10D94B2F10D94B2F1A0
:10E070000D94B2F10D94B2F10D94B2F10D94B2F190
:10E080000D94B2F10D94B2F10D94B2F10D94B2F180
:10E090000D94B2F10D94B2F10D94B2F10D94B2F170
:10E0A0000D94B2F10D94B2F10D94B2F10D94B2F160
:10E0B0000D94B2F10D94B2F10D94B2F10D94B2F150
:10E0C0000D94B2F10D94B2F10D94B2F10D94B2F140
:10E0D0000D94B2F10D94B2F10D94B2F10D94B2F130
:10E0E0000D94B2F141546D656761323536300041AF
:10E0F000726475696E6F206578706C6F72657220DE
:10E1000073746B3530305632206279204D4C530099
:10E11000426F6F746C6F616465723E004875683F52
:10E1200000436F6D70696C6564206F6E203D200048
:10E130004350552054797065202020203D20005FF9
:10E140005F4156525F415243485F5F3D2000415658
:10E1500052204C696243205665723D20004743437C
:10E160002056657273696F6E203D20004350552024
:10E1700049442020202020203D20004C6F7720663D
:10E18000757365202020203D20004869676820665F
:10E190007573652020203D200045787420667573D6
:10E1A00065202020203D20004C6F636B2066757336
:10E1B000652020203D20004D617220203720323024
:10E1C000313300312E362E3800342E332E350056A2
:10E1D00023202020414444522020206F7020636F70
:10E1E00064652020202020696E73747275637469E1
:10E1F0006F6E2061646472202020496E74657272B3
:10E20000757074006E6F20766563746F7200726A49
:10E210006D702020006A6D70200057686174207056
:10E220006F72743A00506F7274206E6F7420737541
:10E2300070706F72746564004D7573742062652030
:10E2400061206C6574746572002000577269747483
:10E25000696E672045450052656164696E672045B7
:10E26000450045452065727220636E743D00504F35
:10E27000525400303D5A65726F2061646472003FF1
:10E280003D43505520737461747300403D454550C3
:10E29000524F4D207465737400423D426C696E6B41
:10E2A000204C454400453D44756D70204545505215
:10E2B0004F4D00463D44756D7020464C415348001B
:10E2C000483D48656C70004C3D4C69737420492F83
:10E2D0004F20506F72747300513D51756974005234
:10E2E0003D44756D702052414D00563D73686F7707
:10E2F00020696E7465727275707420566563746FF0
:10E30000727300593D506F727420626C696E6B00BD
:10E310002A0011241FBECFEFD1E2DEBFCDBF01E046
:10E320000CBF12E0A0E0B2E0EEE1FDEF03E00BBFB6
:10E3300002C007900D92A030B107D9F712E0A0E01B
:10E34000B2E001C01D92AE30B107E1F70F9460F367
:10E350000D948DFE01E20EBF0FEF0DBF11241FBE05
:10E360000D9460F30D9400F020E030E040ED57E0B4
:10E3700005C0FA013197F1F72F5F3F4F2817390792
:10E38000C0F308959C01260F311DC901A0E0B0E043
:10E390002F5F3F4FABBFFC018791882361F08093D3
:10E3A000C6008091C00086FFFCCF8091C0008064D1
:10E3B0008093C000EACF08958DE08093C6008091DD
:10E3C000C00086FFFCCF8091C00080648093C000B5
:10E3D0008AE08093C6008091C00086FFFCCF8091C8
:10E3E000C00080648093C00008950F94C2F10F9420
:10E3F000DCF10895FC019081992359F09093C600B7
:10E400008091C00086FFFCCF8091C0008064809323
:10E41000C0003196992379F70895282F982F929567
:10E420009F70892F805D8A3308F0895F8093C600D2
:10E430008091C00086FFFCCF8091C00080648093F3
:10E44000C000822F8F70982F905D9A3308F0995FEB
:10E450009093C6008091C00086FFFCCF8091C000E1
:10E4600080648093C00008959C01FB01853691056E
:10E470001CF46330710594F0C90164E670E00F94F8
:10E480002EFE605D7F4F6093C6008091C00086FFC6
:10E49000FCCF8091C00080648093C0002B30310598
:10E4A00014F43297B4F0C90164E670E00F942EFEC4
:10E4B0006AE070E00F942EFE605D7F4F6093C600AF
:10E4C0008091C00086FFFCCF8091C0008064809363
:10E4D000C000C9016AE070E00F942EFEC0968093E0
:10E4E000C6008091C00086FFFCCF8091C000806490
:10E4F0008093C00008951F93182F8EE692EE60E07F
:10E500000F94C2F11093C6008091C00086FFFCCF2B
:10E510008091C00080648093C0000F94DCF11F9153
:10E5200008952F923F924F925F926F927F928F92B7
:10E530009F92AF92BF92CF92DF92EF92FF920F9392
:10E540001F93DF93CF93CDB7DEB762970FB6F894E2
:10E55000DEBF0FBECDBF382E622ECA01DB015C01CB
:10E560006D01772420E2222E2E010894411C511CBB
:10E570008BC081E0A81680E0B80681E0C80680E084
:10E58000D80628F0C601AA27BB270F940DF2BB2797
:10E59000AD2D9C2D8B2D0F940DF28A2D0F940DF225
:10E5A0002092C6008091C00086FFFCCF8091C00001
:10E5B00080648093C0009DE29093C6008091C0006B
:10E5C00086FFFCCF8091C00080648093C0002092C1
:10E5D000C6008091C00086FFFCCF8091C00080649F
:10E5E0008093C00019828601750188249924A1E0D6
:10E5F0003A1651F03A1620F0B2E03B1661F409C029
:10E600000BBFF701779007C0C7010F9477FE782EF4
:10E6100002C0F7017080872D0F940DF22092C60082
:10E620008091C00086FFFCCF8091C0008064809301
:10E63000C000872D8052F401EF70F0708F3520F408
:10E64000E40DF51D708204C0E40DF51D8EE280839B
:10E650000894E11CF11C011D111D0894811C911CE2
:10E6600090E18916910409F0C2CF80E190E0A0E02A
:10E67000B0E0A80EB91ECA1EDB1E198AC2010F9493
:10E68000FAF10F94DCF16A94662009F072CF629679
:10E690000FB6F894DEBF0FBECDBFCF91DF911F91B3
:10E6A0000F91FF90EF90DF90CF90BF90AF909F9031
:10E6B0008F907F906F905F904F903F902F90089534
:10E6C0002F923F924F925F926F927F928F929F9282
:10E6D000AF92BF92CF92DF92EF92FF920F931F9370
:10E6E000DF93CF93CDB7DEB7CD53D1400FB6F894BB
:10E6F000DEBF0FBECDBF01E20EBF0FEF0DBF94B75F
:10E70000F894A89514BE80916000886180936000A1
:10E7100010926000789493FF05C0E0910002F091A0
:10E7200001021995279A2F9A8091C00082608093E8
:10E73000C00080E18093C40088E18093C1000000A4
:10E74000EE24FF24870144E0A42EB12CCC24DD2448
:10E7500024C0C5010197F1F70894E11CF11C011DCB
:10E76000111D21E2E2162EE4F20620E0020720E06D
:10E77000120718F031E0C32ED12CC801B70127ECE5
:10E780003BE140E050E00F9441FE611571058105C9
:10E79000910519F485B1805885B98091C00087FD35
:10E7A00003C0C114D104A9F2A6014F5F5F4FC25E3E
:10E7B000DE4F59834883CE51D140C25EDE4F8881FF
:10E7C0009981CE51D140019711F00D9410FEC05D9A
:10E7D000DE4F19821882C053D14060E0C15DDE4F28
:10E7E0001882CF52D14088249924C35DDE4F19820C
:10E7F0001882CD52D140C05EDE4F188219821A8233
:10E800001B82C052D140CE5CDE4F188219821A8220
:10E810001B82C253D140EE24FF2487010BBFF701B6
:10E8200007911691C45CDE4F19830883CC53D14005
:10E830000D940BFEC25EDE4F28813981CE51D1404E
:10E840002130310509F52091C600C25EDE4F1982E4
:10E850001882CE51D14022C02F5F3F4F4F4F5F4FA4
:10E86000213082E138078AE7480780E0580780F0C6
:10E87000C45CDE4FE881F981CC53D140EF5FFF4F9C
:10E8800019F0EE27FF27099420E030E040E050E047
:10E890008091C00087FFE0CF2091C600C35DDE4FAE
:10E8A00048815981CD52D1404F5F5F4FC35DDE4FEC
:10E8B00059834883CD52D140213209F063C64A3092
:10E8C000510508F05FC60894811C911C53E0851621
:10E8D000910409F059C600E010E018C081E280936D
:10E8E000C6008091C00086FFFCCF8091C00080648C
:10E8F0008093C0002F5F3F4F2931310579F70F9486
:10E90000DCF10F5F1F4F0530110519F020E030E0FA
:10E91000E5CF10920A0210920B0210920C02109294
:10E920000D02109206021092070210920802109235
:10E930000902109202021092030210920402109235
:10E9400005028FEE90EE60E00F94F5F180E191EE1C
:10E9500060E00F94C2F18091C00087FFFCCF9091DE
:10E96000C600903608F09F759032B8F09093C600BC
:10E970008091C00086FFFCCF8091C00080648093AE
:10E98000C000A0E2A093C6008091C00086FFFCCF2B
:10E990008091C00080648093C000983409F4D7C18E
:10E9A0009934B8F4923409F459C1933458F490333B
:10E9B00019F1903308F4E3C59F33A1F1903409F0C5
:10E9C000DEC5BDC0953409F470C1963409F0D7C5D1
:10E9D00098C1923509F42BC2933538F49C3409F46C
:10E9E000F5C1913509F0CBC518C2963509F445C279
:10E9F000993509F0C4C567C483E792EE62E00F94CD
:10EA0000F5F110920602109207021092080210927D
:10EA1000090210920A0210920B0210920C0210923C
:10EA20000D0213C18FE792EE62E00F94F5F18FEEC5
:10EA300090EE60E00F94F5F181E291EE60E00F94CA
:10EA4000C2F187EB91EE60E00F94F5F180E391EE77
:10EA500060E00F94C2F184EE90EE60E00F94F5F167
:10EA60008FE391EE60E00F94C2F186E090E061E008
:10EA700070E00F9434F20F94DCF18DE591EE60E0DC
:10EA80000F94C2F189EC91EE60E00F94F5F18EE401
:10EA900091EE60E00F94C2F183EC91EE60E00F9490
:10EAA000F5F18CE691EE60E00F94C2F18EE10F94E7
:10EAB0000DF288E90F940DF281E00F940DF20F949E
:10EAC000DCF18BE791EE60E00F94C2F119E0E0E039
:10EAD000F0E010935700E4918E2F0F940DF20F94F5
:10EAE000DCF18AE891EE60E00F94C2F1E3E0F0E03F
:10EAF00010935700E4918E2F0F940DF20F94DCF1D8
:10EB000089E991EE60E00F94C2F1E2E0F0E0109349
:10EB10005700E4918E2F0F940DF20F94DCF188EAE8
:10EB200091EE60E00F94C2F1E1E0F0E01093570045
:10EB30001491812F0F940DF20F94DCF107CF8BE825
:10EB400092EE62E00F94F5F18BE492EE60E00F94A8
:10EB5000F5F10F94DCF100E010E019C0C8016F2D51
:10EB60000F947FFEFF2031F489E492EE60E00F9471
:10EB7000C2F10BC0F092C6008091C00086FFFCCFAE
:10EB80008091C00080648093C0000F5F1F4FC80158
:10EB900081519F41A0E0B0E0ABBFFC01F790BAE229
:10EBA000FB1621F0E2E000301E07C1F60F94DCF105
:10EBB0000F94DCF187E592EE60E00F94F5F10F948D
:10EBC000DCF1CC24DD2400E010E01EC0C8010F946D
:10EBD00077FEF82E882331F489E492EE60E00F94FA
:10EBE000C2F10BC08093C6008091C00086FFFCCFAD
:10EBF0008091C00080648093C000FE1419F00894D6
:10EC0000C11CD11C0F5F1F4FC80181519F41A0E063
:10EC1000B0E0ABBFFC01E790FAE2EF1621F022E092
:10EC20000030120799F60F94DCF10F94DCF182E6C4
:10EC300092EE60E00F94C2F1C60161E070E00F94C3
:10EC400034F20F94DCF10F94DCF110920202109276
:10EC50000302109204021092050278CE89E992EE26
:10EC600062E00F94F5F1279A2F9A16C02F9880E052
:10EC700090E0E0EDF7E03197F1F7019684369105E9
:10EC8000C1F72F9A80E090E0E0EDF7E03197F1F7DF
:10EC9000019684369105C1F78091C00087FFE6CFC9
:10ECA0008091C00087FFFCCF64C485EA92EE62E0E9
:10ECB0000F94F5F140910202509103026091040219
:10ECC0007091050281E020E10F9491F2809102029F
:10ECD00090910302A0910402B091050280509F4FD1
:10ECE000AF4FBF4F8093020290930302A0930402A0
:10ECF000B093050280509041A040B04008F426CE69
:10ED0000A4CF83EB92EE62E00F94F5F140910602FE
:10ED100050910702609108027091090280E020E1A1
:10ED20000F9491F28091060290910702A09108023F
:10ED3000B091090280509F4FAF4FBF4F80930602A2
:10ED400090930702A0930802B0930902FFCD80ECD4
:10ED500092EE62E00F94F5F183E792EE60E00F949B
:10ED6000F5F18FE792EE60E00F94F5F18BE892EE0B
:10ED700060E00F94F5F189E992EE60E00F94F5F10F
:10ED800085EA92EE60E00F94F5F183EB92EE60E09D
:10ED90000F94F5F180EC92EE60E00F94F5F187ECC2
:10EDA00092EE60E00F94F5F188ED92EE60E00F9442
:10EDB000F5F18FED92EE60E00F94F5F18AEE92EEB0
:10EDC00060E00F94F5F183E093EEBDCD87EC92EE19
:10EDD00062E00F94F5F181E40F947BF282E40F94EA
:10EDE0007BF283E40F947BF284E40F947BF285E45E
:10EDF0000F947BF286E40F947BF287E40F947BF20E
:10EE000088E40F947BF28AE40F947BF28BE40F94F6
:10EE10007BF28CE40F947BF299CD88ED92EE62E068
:10EE20000F94F5F1772473948824992409C48FED05
:10EE300092EE62E00F94F5F140910A0250910B02BC
:10EE400060910C0270910D0282E020E10F9491F22A
:10EE500080910A0290910B02A0910C02B0910D02D8
:10EE600080509F4FAF4FBF4F80930A0290930B0289
:10EE7000A0930C02B0930D0269CD8AEE92EE62E08F
:10EE80000F94F5F184EE90EE60E00F94F5F18FECC5
:10EE900091EE60E00F94F5F1662477244301CC5D98
:10EEA000DE4F19821882C452D140D401C301B695F5
:10EEB000A79597958795CA5DDE4F88839983AA8326
:10EEC000BB83C652D140CC5DDE4FA881B981C4520C
:10EED000D1401196CC5DDE4FB983A883C452D14096
:10EEE000CD0162E070E00F9434F2B0E2B093C6005E
:10EEF0008091C00086FFFCCF8091C0008064809329
:10EF0000C000EDE2E093C6008091C00086FFFCCF18
:10EF10008091C00080648093C000F0E2F093C6004E
:10EF20008091C00086FFFCCF8091C00080648093F8
:10EF3000C000CA5DDE4FE880F9800A811B81C6529D
:10EF4000D140BB27A12F902F8F2D0F940DF2CA5DBA
:10EF5000DE4F8881C652D1400F940DF2B0E2FB2EF5
:10EF6000F092C6008091C00086FFFCCF8091C00067
:10EF700080648093C0000DE30093C6008091C000C0
:10EF800086FFFCCF8091C00080648093C00010E2B7
:10EF90001093C6008091C00086FFFCCF8091C00016
:10EFA00080648093C0008BBEF3012791C65DDE4F65
:10EFB0002883CA52D140A22EBB24CC24DD2408943D
:10EFC000611C711C811C911C8BBEF3018791282E42
:10EFD0003324442455240894611C711C811C911C09
:10EFE0008BBEF3013791C55DDE4F3883CB52D140E4
:10EFF0000894611C711C811C911C8BBEF30147910C
:10F00000C45DDE4F4883CC52D140ADEFEA2EAFEF66
:10F01000FA2EAFEF0A2FAFEF1A2F6E0C7F1C801E57
:10F02000911E142D032DF22CEE24EA0CFB1C0C1D5A
:10F030001D1D0F940DF220E22093C6008091C000A8
:10F0400086FFFCCF8091C00080648093C000C65DC5
:10F05000DE4F8881CA52D1400F940DF230E23093D6
:10F06000C6008091C00086FFFCCF8091C000806404
:10F070008093C000C45DDE4F8881CC52D1400F9494
:10F080000DF240E24093C6008091C00086FFFCCFA5
:10F090008091C00080648093C000C55DDE4F888190
:10F0A000CB52D1400F940DF250E25093C6008091A4
:10F0B000C00086FFFCCF8091C00080648093C000B8
:10F0C0008FEFE8168FEFF80680E0080780E018075A
:10F0D00031F484E092EE60E00F94C2F1DFC0D80119
:10F0E000C7018070907CA070B0708050904CA040A0
:10F0F000B040D1F52FEF3FE340E050E0E222F322B1
:10F1000004231523CA5DDE4FA880B980CA80DB8046
:10F11000C652D140AE0CBF1CC01ED11EAA0CBB1CD7
:10F12000CC1CDD1C8EE092EE60E00F94C2F1BB2798
:10F13000A12F902F8F2D0F940DF28E2D0F940DF285
:10F1400030E23093C6008091C00086FFFCCF8091F2
:10F15000C00080648093C0004EE34093C60080915D
:10F16000C00086FFFCCF87C08EE09EEFA0E0B0E03D
:10F17000E822F9220A231B239CE0E91694E9F90608
:10F1800090E0090790E0190709F088C0C45DDE4FE0
:10F19000A881CC52D140EA2EFF2400E010E0102FCD
:10F1A0000F2DFE2CEE24C55DDE4FB881CB52D14031
:10F1B000EB0EF11C011D111DD601C501817090706F
:10F1C000A070B070DC0199278827E80EF91E0A1F8D
:10F1D0001B1F20EF30E040E050E0A222B322C42207
:10F1E000D52241E1AA0CBB1CCC1CDD1C4A95D1F7F1
:10F1F000EA0CFB1C0C1D1D1D81E090E0A0E0B0E0BE
:10F20000282239224A225B2235E1220C331C441C7D
:10F21000551C3A95D1F7E20CF31C041D151D57013E
:10F220006801AA0CBB1CCC1CDD1C85E192EE60E0E1
:10F230000F94C2F1C801AA27BB270F940DF2BB2778
:10F24000A12F902F8F2D0F940DF28E2D0F940DF274
:10F2500090E29093C6008091C00086FFFCCF809121
:10F26000C00080648093C000AEE3A093C60080918C
:10F27000C00086FFFCCF8091C00080648093C000F6
:10F28000C601AA27BB270F940DF2BB27AD2D9C2DDD
:10F290008B2D0F940DF28A2D0F940DF20F94DCF14B
:10F2A000CC5DDE4FE881F981C452D140F99709F471
:10F2B0004DCBF4E0EF2EF12C012D112D6E0C7F1CA7
:10F2C000801E911EF2CD83E093EE62E00F94F5F183
:10F2D0008AE192EE60E00F94C2F18091C00087FF56
:10F2E000FCCF1091C6001F751093C6008091C0001E
:10F2F00086FFFCCF8091C00080648093C0000F9493
:10F30000DCF1812F81548A3108F036C1163409F4BA
:10F3100095C0173490F4133409F44EC0143430F40B
:10F320001134F1F0123409F01DC130C0143409F465
:10F3300059C0153409F016C16BC01A3409F4C4C0A1
:10F340001B3438F4173409F48FC0183409F00AC19B
:10F35000A1C01B3409F4D2C01C3409F003C1E8C0B9
:10F360008FEF81B90DC082B1809582B980E090E0C5
:10F37000E0EDF7E03197F1F70196883C9105C1F790
:10F380008091C00087FFEFCF12B8EFC08FEF84B934
:10F390000DC085B1809585B980E090E0E0EDF7E0A3
:10F3A0003197F1F70196883C9105C1F78091C00033
:10F3B00087FFEFCF15B8D9C08FEF87B90DC088B1DF
:10F3C000809588B980E090E0E0EDF7E03197F1F7C3
:10F3D0000196883C9105C1F78091C00087FFEFCF6F
:10F3E00018B8C3C08FEF8AB90DC08BB180958BB9A7
:10F3F00080E090E0E0EDF7E03197F1F70196883C8E
:10F400009105C1F78091C00087FFEFCF1BB8ADC059
:10F410008FEF8DB90DC08EB180958EB980E090E0F0
:10F42000E0EDF7E03197F1F70196883C9105C1F7DF
:10F430008091C00087FFEFCF1EB897C08FEF80BBD1
:10F440000DC081B3809581BB80E090E0E0EDF7E0F6
:10F450003197F1F70196883C9105C1F78091C00082
:10F4600087FFEFCF11BA81C08FEF83BB0DC084B38C
:10F47000809584BB80E090E0E0EDF7E03197F1F714
:10F480000196883C9105C1F78091C00087FFEFCFBE
:10F4900014BA6BC08FEF809301010FC080910201FD
:10F4A00080958093020180E090E0E0EDF7E03197F5
:10F4B000F1F70196883C9105C1F78091C00087FF64
:10F4C000EDCF1092020151C08FEF809304010FC065
:10F4D0008091050180958093050180E090E0E0ED4A
:10F4E000F7E03197F1F70196883C9105C1F78091DB
:10F4F000C00087FFEDCF1092050137C08FEF8093DA
:10F5000007010FC08091080180958093080180E079
:10F5100090E0E0EDF7E03197F1F70196883C910536
:10F52000C1F78091C00087FFEDCF109208011DC088
:10F530008FEF80930A010FC080910B01809580931B
:10F540000B0180E090E0E0EDF7E03197F1F70196F4
:10F55000883C9105C1F78091C00087FFEDCF1092E4
:10F560000B0103C085E292EEEEC98091C00087FFD7
:10F57000FCCF8091C600EAC988E392EEE4C98CE131
:10F5800091EEE1C988249924933011F1943028F444
:10F59000913089F09230B8F408C0953061F195301F
:10F5A000F0F0963009F048C043C02B3109F042C951
:10F5B00091E06BE13FC96227C15DDE4F2883CF52E6
:10F5C000D14092E037C9B22FA0E0622793E032C960
:10F5D000822F90E0A82BB92B622794E02BC92E3004
:10F5E00009F039C3622795E0C05DDE4F19821882A9
:10F5F000C053D1401FC9E1E0F0E0EC0FFD1FC05D3A
:10F60000DE4F08811981C053D140E00FF11F2083E4
:10F610000F5F1F4FC05DDE4F19830883C053D14079
:10F6200062270A171B0709F005C9D80196E002C92D
:10F63000261709F010C303C0973009F0FBC87724E0
:10F640009981933109F412C19431C8F4963009F4C8
:10F65000D8C0973050F4923009F406C1933009F4C1
:10F660006DC0913009F059C253C0913109F477C08F
:10F67000923108F0BBC0903109F04FC2F5C098310B
:10F6800009F487C0993150F4953109F4EFC09531F0
:10F6900008F4C6C1963109F040C2C2C19A3109F4DA
:10F6A0006CC09A3108F491C09B3109F45BC09D3164
:10F6B00009F033C29D81903359F48F81882311F46E
:10F6C0009EE11CC0813011F091E018C098E916C08D
:10F6D000892F807591F0903539F4E0E0F0E089E011
:10F6E0008093570094910AC0983539F4E3E0F0E034
:10F6F00089E080935700949101C090E01A821B82A8
:10F700008D818C831D829E831F8227E030E009C299
:10F710001A8288E08B8381E48C8386E58D8382E581
:10F720008E8389E48F8383E5888780E589878FE5E9
:10F730008A8782E38B872BE030E0F3C18A818139AD
:10F7400041F0823941F0803911F48FE005C080E04A
:10F7500003C082E001C08AE01A828B8344C0772410
:10F76000739482C08D81882311F48EE12CC0813086
:10F7700011F081E028C088E926C01A82E1E0F0E0BB
:10F7800089E08093570084918B831C8224E030E0D1
:10F79000C8C18B81803589F48C81883039F4E2E0EE
:10F7A000F0E089E08093570084910DC0E0E0F0E044
:10F7B00089E080935700849106C0E3E0F0E089E09F
:10F7C0008093570084911A82DFCF8D81836C99E0FA
:10F7D000E1E0F0E0082E90935700E89507B600FCB2
:10F7E000FDCF1A821B8223E030E09BC180EC8A832C
:10F7F000CE5CDE4F188219821A821B82C253D1401E
:10F800008EC18A8190E0A0E0B0E0582F44273327D2
:10F8100022278B8190E0A0E0B0E0DC0199278827C7
:10F82000282B392B4A2B5B2B8D8190E0A0E0B0E098
:10F83000282B392B4A2B5B2B8C8190E0A0E0B0E089
:10F84000BA2FA92F982F8827282B392B4A2B5B2BCF
:10F85000220F331F441F551FC05EDE4F288339839C
:10F860004A835B83C052D1401A8259C13A81C95C34
:10F87000DE4F3883C753D140CA5CDE4F1882C6536F
:10F88000D1408B81C82EDD24CA5CDE4F488159816E
:10F89000C653D140C42AD52A933109F082C0CE5C28
:10F8A000DE4F88819981AA81BB81C253D1408050AB
:10F8B000904CA340B04030F583E0CE5CDE4FE88052
:10F8C000F9800A811B81C253D140F70100935B008C
:10F8D00080935700E89507B600FCFDCFCE5CDE4F65
:10F8E000088119812A813B81C253D14000501F4FAA
:10F8F0002F4F3F4FCE5CDE4F088319832A833B8313
:10F90000C253D140C05EDE4F488159816A817B81FC
:10F91000C052D140DE011B9631E08C9111962C91A2
:10F9200011971296C75CDE4F2883C953D140C85C3B
:10F93000DE4F1882C853D14090E0C85CDE4FE881AA
:10F94000F981C853D1408E2B9F2B0C01FA01609393
:10F950005B0030935700E89511244E5F5F4F6F4F67
:10F960007F4F0EEFE02E0FEFF02ECE0CDF1CC114F8
:10F97000D10499F685E0C05EDE4F088119812A81A5
:10F980003B81C052D140F80120935B008093570027
:10F99000E89507B600FCFDCF81E180935700E8951C
:10F9A00035C0C05EDE4F88819981AA81BB81C0527B
:10F9B000D140B695A795979587957C018601ABE0D8
:10F9C000AA2EB12CAC0EBD1E0BC0D5016D915D01F0
:10F9D000C7010F947FFE0894E11CF11C01501040F8
:10F9E0000115110591F7A60160E070E0440F551F65
:10F9F000661F771FC05EDE4FE880F9800A811B8199
:10FA0000C052D1404E0D5F1D601F711F1A82C05E33
:10FA1000DE4F488359836A837B83C052D1407FC0C5
:10FA2000FA80C55CDE4FF882CB53D140C65CDE4F16
:10FA30001882CA53D1408B81C82EDD24C65CDE4FAC
:10FA400008811981CA53D140C02AD12A1A828981DA
:10FA5000BE016D5F7F4F843121F59601C05EDE4FA0
:10FA6000E880F9800A811B81C052D1400BBFF701A9
:10FA700087919691DB018C9311969C936E5F7F4FDB
:10FA8000D801C7010296A11DB11DC05EDE4F88835B
:10FA90009983AA83BB83C052D14022503040F1F6F3
:10FAA00036C0C05EDE4F288139814A815B81C052F9
:10FAB000D1400894C108D108760100E010E0089414
:10FAC000C11CD11C0894E11CF11C011D111DE20E8A
:10FAD000F31E041F151F21BDBB27A52F942F832FB5
:10FAE00082BD2F5F3F4F4F4F5F4FF89A80B5DB01CC
:10FAF0008D93BD012E153F054007510761F7C05E8C
:10FB0000DE4F288339834A835B83C052D1409601FC
:10FB10002D5F3F4FFB01108204C080EC8A8322E0FE
:10FB200030E08BE18093C6008091C00086FFFCCF5F
:10FB30008091C00080648093C000C15DDE4FF88179
:10FB4000CF52D140F093C6008091C00086FFFCCF19
:10FB50008091C00080648093C000432F3093C60022
:10FB60008091C00086FFFCCF8091C00080648093AC
:10FB7000C000922F2093C6008091C00086FFFCCF6A
:10FB80008091C00080648093C0008EE08093C600A6
:10FB90008091C00086FFFCCF8091C000806480937C
:10FBA000C00065E1C15DDE4FE880CF52D1406E25D7
:10FBB00069276427FE01319610C090819093C6009A
:10FBC0008091C00086FFFCCF31968091C000806498
:10FBD0008093C0006927215030402115310569F715
:10FBE0006093C6008091C00086FFFCCF8091C0006A
:10FBF00080648093C00085B1805885B9772081F4F6
:10FC0000C15DDE4F0881CF52D1400F5FC15DDE4F35
:10FC10000883CF52D14090E0A0E0B0E00D941AF4F8
:10FC200027982F9880E090E020ED37E0F901319798
:10FC3000F1F7019684369105C9F700008091C00064
:10FC40008D7F8093C00081E180935700E895EE2777
:10FC5000FF270994FFCF90E00D941AF497FB092E2B
:10FC600007260AD077FD04D02ED006D000201AF443
:10FC7000709561957F4F0895F6F7909581959F4F08
:10FC80000895A1E21A2EAA1BBB1BFD010DC0AA1FDD
:10FC9000BB1FEE1FFF1FA217B307E407F50720F0F5
:10FCA000A21BB30BE40BF50B661F771F881F991F70
:10FCB0001A9469F760957095809590959B01AC01B9
:10FCC000BD01CF010895AA1BBB1B51E107C0AA1FAC
:10FCD000BB1FA617B70710F0A61BB70B881F991FED
:10FCE0005A95A9F780959095BC01CD010895F99991
:10FCF000FECF92BD81BDF89A992780B50895262F31
:10FD0000F999FECF1FBA92BD81BD20BD0FB6F89400
:0EFD1000FA9AF99A0FBE01960895F894FFCF63
:00000001FF
