:020000040000FA
:100000000C942E010C945F010C945F010C945F0121
:100010000C945F010C945F010C945F010C945F01E0
:100020000C945F010C945F010C945F010C945F01D0
:100030000C945F010C945F010C945F010C945F01C0
:100040000C945F010C945F010C945F010C945F01B0
:100050000C945F010C945F010C945F010C94C60436
:100060000C945F010C943A050C9410050C945F01FC
:100070000C945F010C945F010C945F010C945F0180
:100080000C945F010C945F010C945F010C945F0170
:100090000C9413060C94EB050C9470050C945F0102
:1000A0000C945F010C945F010C945F010C945F0150
:1000B0000C945F010C945F010C945F010C945F0140
:1000C0000C945F010C945F010C945F010C945F0130
:1000D0000C945F010C945F010C945F010C945F0120
:1000E0000C945F010C94DD010C944B020C946E0295
:1000F0000C94B4010C94A8010C945A020C94B7010E
:100100000C9401030C947C020C9491010C94AC01AE
:100110000C94D9010C94D5010C94BD010C94C70129
:100120000C94E7010C94CF010C94CB010C94B0011A
:100130000C94560B0C94C1010C9496010C94B402CF
:100140000C941E020C94E3016364696E6F70737506
:1001500078585B0000002100240027002A002D00B1
:100160003000330001010000040107010A01000012
:100170002200250028002B002E003100340002014F
:100180000000050108010B01050505050705080824
:100190000808020202020A0A080804040404010111
:1001A0000101010101010303030303030303040726
:1001B00007070C0C0C0C0C0C0C0C020202020606BD
:1001C0000606060606060B0B0B0B0B0B0B0B0102B0
:1001D0001020200808102040102040800201020159
:1001E0000804020101020408102040808040201011
:1001F000080402018004020180402010080402016A
:1002000008040201010204081020408001020408D1
:100210001020408000000A0B02090C0D0E08070395
:1002200004010000000000000000000000000000C9
:1002300000000000000000000000000000000000BE
:10024000121110000000000000000000000000007B
:1002500000000000000000000000560B11241FBE2B
:10026000CFEFD1E2DEBFCDBF00E00CBF13E0A0E0D6
:10027000B2E0ECEBF2E200E00BBF02C007900D929F
:10028000A238B107D9F728E0A2E8B3E001C01D9277
:10029000A83AB207E1F711E0CEE2D1E000E006C0F3
:1002A00021970109802FFE010E94E10DCD32D10777
:1002B00080E00807A9F70E94AF060C945C110C942B
:1002C0000000282F30E0F901EC5EFD4F9491F90118
:1002D000E253FE4F449128573E4FF90124912223C7
:1002E00009F435C0992311F191509231F8F4E92FB6
:1002F000F0E08827E158FE4F8F4F0C94E10DB001DC
:10030000B4019101A801AC019601B701BD01C10181
:10031000C701CB01CF01D501D9019601DD01E30170
:10032000E701809180008F7780938000E22FF0E0DA
:10033000EE0FFF1FE259FE4FA591B4918FB7F894CD
:10034000EC91611148C040954E234C938FBF0895A6
:10035000809180008F7DE8CF80918000877FE4CFFF
:1003600084B58F7784BDE2CF84B58F7DFBCF80913C
:10037000B0008F778093B000D9CF8091B0008F7D8F
:10038000F9CF809190008F7780939000CFCF8091AC
:1003900090008F7DF9CF80919000877FF5CF80917D
:1003A000A0008F778093A000C1CF8091A0008F7DA7
:1003B000F9CF8091A000877FF5CF809120018F77C2
:1003C00080932001B3CF809120018F7DF9CF809160
:1003D0002001877FF5CF4E2BB8CF3FB7F89480919F
:1003E000070890910808A0910908B0910A0826B55D
:1003F000A89B05C02F3F19F00196A11DB11D3FBF5D
:10040000BA2FA92F982F8827BC01CD01620F711D2B
:10041000811D911D42E0660F771F881F991F4A9525
:10042000D1F708952FB7F8946091030870910408EC
:1004300080910508909106082FBF0895AF92BF9252
:10044000CF92DF92EF92FF920F931F93CF93DF93A0
:100450006C017B018B01040F151FEB015E01AE18CF
:10046000BF08C017D10759F06991D601ED91FC91F1
:100470000190F081E02DC6011995892B79F7C5010E
:10048000DF91CF911F910F91FF90EF90DF90CF9070
:10049000BF90AF900895FC01538D448D252F30E01F
:1004A000842F90E0821B930B541710F0CF96089581
:1004B00001970895FC01918D828D981761F0A28DAE
:1004C000AE0FBF2FB11D5D968C91928D9F5F9F7374
:1004D000928F90E008958FEF9FEF0895FC01918D2A
:1004E000828D981731F0828DE80FF11D858D90E097
:1004F00008958FEF9FEF0895FC01918D228D892F34
:1005000090E0805C9F4F821B91098F73992708951B
:100510008BE098E00E947C0221E0892B09F420E026
:10052000822F0895FC01A48DA80FB92FB11DA35AE5
:10053000BF4F2C91848D90E001968F739927848F03
:10054000A689B7892C93A089B1898C918370806426
:100550008C93938D848D981306C00288F389E02DC7
:1005600080818F7D80830895EF92FF920F931F9378
:10057000CF93DF93EC0181E0888F9B8D8C8D981356
:100580001AC0E889F989808185FF15C09FB7F89462
:10059000EE89FF896083E889F989808183708064AE
:1005A00080839FBF81E090E0DF91CF911F910F91F9
:1005B000FF90EF900895F62E0B8D10E00F5F1F4F08
:1005C0000F731127E02E8C8D8E110CC00FB607FC17
:1005D000FACFE889F989808185FFF5CFCE010E94A5
:1005E0009202F1CFEB8DEC0FFD2FF11DE35AFF4F7F
:1005F000F0829FB7F8940B8FEA89FB898081806233
:10060000CFCFCF93DF93EC01888D8823B9F0AA89EF
:10061000BB89E889F9898C9185FD03C0808186FDBD
:100620000DC00FB607FCF7CF8C9185FFF2CF80810C
:1006300085FFEDCFCE010E949202E9CFDF91CF91ED
:10064000089580E090E0892B29F00E9488028111B2
:100650000E94000080E090E0892B49F080E090E06B
:10066000892B29F00E94000081110E94000080E087
:1006700090E0892B49F080E090E0892B29F00E94DE
:10068000000081110E94000080E090E0892B49F079
:1006900080E090E0892B29F00E94000081110C94E9
:1006A000000008951092F1051092F2051092F305E2
:1006B0001092F4051092E5051092E6051092E705F8
:1006C0001092E8051092E1051092E2051092E30500
:1006D0001092E4051092DD051092DE051092DF0500
:1006E0001092E0051092E9051092EA051092EB05D0
:1006F0001092EC051092ED051092EE051092EF05A8
:100700001092F0051092F5051092DC051092F60596
:100710000895FC0101900020E9F73197AF01481BD3
:10072000590BBC018BE098E00C941E028F929F92B3
:10073000AF92BF920F931F93CF93DF93CDB7DEB7E6
:10074000A1970FB6F894DEBF0FBECDBF19A24230FD
:1007500008F44AE08E010F5D1F4F842E912CB12CBE
:10076000A12CA50194010E94BF0DE62FB901CA0179
:10077000EA30F4F4E05DD801EE938D01232B242BB5
:10078000252B79F790E080E0109719F0CD010E94B9
:100790008903A1960FB6F894DEBF0FBECDBFDF91DF
:1007A000CF911F910F91BF90AF909F908F90089520
:1007B000E95CE1CFCF93DF930E948903EC0184E1F0
:1007C00092E00E9489038C0F9D1FDF91CF910895C5
:1007D0000C9489034F925F926F927F928F929F92B7
:1007E000AF92BF92CF92DF92EF92FF920F931F933F
:1007F000CF936B017C01742EAC019B010E94BA0D5A
:10080000882399F087E192E0CF911F910F91FF909B
:10081000EF90DF90CF90BF90AF909F908F907F90A0
:100820006F905F904F900C94890346015701E894B4
:10083000B7F82FEF3FEF4FE75FE7C501B4010E9424
:10084000BA0D81110DC02FEF3FEF4FE75FE7C501F4
:10085000B4010E94F00B18161CF48BE192E0D4CF87
:100860002FEF3FEF4FE75FE4C701B6010E94480D4D
:1008700018161CF48FE192E0C7CF2FEF3FEF4FE740
:100880005FECC701B6010E94F00B87FDF3CF20E0BB
:1008900030E0A901C701B6010E94F00B10E000E0B2
:1008A00087FF0AC06DE28BE098E00E94B4028C01E1
:1008B000F7FAF094F7F8F094C0E060E070E080E0C0
:1008C0009FE37C1641F020E030E040E251E40E94DA
:1008D000F50BCF5FF6CFA70196010E94840B2B0189
:1008E0003C010E94670C4B015C014AE00E949603A8
:1008F0007C01E00EF11ECC23C1F1C501B4010E94C0
:10090000960C9B01AC01C301B2010E94830B4B0109
:100910005C016EE28BE098E00E94B402E80EF91EE2
:10092000C15018F120E030E040E251E4C501B401CB
:100930000E944D0D2B013C010E94670C4B01B12C14
:10094000A12C4AE0C501B4010E949603E80EF91EED
:10095000C501B4010E94960C9B01AC01C301B20118
:100960000E94830B4B015C01DBCFC701CF911F912C
:100970000F91FF90EF90DF90CF90BF90AF909F903E
:100980008F907F906F905F904F9008951F920F927D
:100990000FB60F9211242F933F938F939F93AF9392
:1009A000BF938091030890910408A0910508B0912D
:1009B00006083091020823E0230F2D3758F50196E1
:1009C000A11DB11D20930208809303089093040891
:1009D000A0930508B0930608809107089091080835
:1009E000A0910908B0910A080196A11DB11D80933C
:1009F000070890930808A0930908B0930A08BF91CC
:100A0000AF919F918F913F912F910F900FBE0F90BB
:100A10001F90189526E8230F0296A11DB11DD2CF75
:100A20001F920F920FB60F9211240BB60F922F93B5
:100A30003F934F935F936F937F938F939F93AF9366
:100A4000BF93EF93FF938BE098E00E949202FF9197
:100A5000EF91BF91AF919F918F917F916F915F9136
:100A60004F913F912F910F900BBE0F900FBE0F90A3
:100A70001F9018951F920F920FB60F9211240BB66C
:100A80000F922F938F939F93EF93FF93E0911B0807
:100A9000F0911C088081E0912108F091220882FDEC
:100AA0001DC09081809124088F5F8F73209125084D
:100AB000821741F0E0912408F0E0E55FF74F958F51
:100AC00080932408FF91EF919F918F912F910F9028
:100AD0000BBE0F900FBE0F901F9018958081F2CF24
:100AE0001F920F920FB60F9211240BB60F922F93F5
:100AF0003F938F939F93EF93FF93809188039091FF
:100B0000890320918D0330918E032130310509F541
:100B10008F3F9807F1F41092CD0089E08093CC00CC
:100B200088E48093C9008EE28093CA001092CE00C0
:100B30001092890310928803FF91EF919F918F91FA
:100B40003F912F910F900BBE0F900FBE0F901F90F3
:100B500018950097A1F41092CD0083E08093CC000B
:100B600088E28093C9008EE08093CA001092CE0084
:100B700081E090E09093890380938803DDCF2091FA
:100B80000002309101028217930774F49C012F5FD9
:100B90003F4F309389032093880385529C4FFC017B
:100BA00080818093CE00C8CF1092CD0083E08093E7
:100BB000CC0088E48093C9008EE08093CA00E09165
:100BC0008803F0918903E552FC4F80818093CE0029
:100BD0008FEF9FEFCFCF1F920F920FB60F9211247E
:100BE0000BB60F922F933F934F935F936F937F9327
:100BF0008F939F93AF93BF93EF93FF930E947005E2
:100C0000FF91EF91BF91AF919F918F917F916F91E4
:100C10005F914F913F912F910F900BBE0F900FBEA0
:100C20000F901F9018951F920F920FB60F921124DC
:100C30000BB60F921F932F933F934F935F936F9336
:100C40007F938F939F93AF93BF93CF93DF93EF9354
:100C5000FF939091C8001091CE0080918A0381305B
:100C6000C9F482E080938A03FF91EF91DF91CF91E5
:100C7000BF91AF919F918F917F916F915F914F91B4
:100C80003F912F911F910F900BBE0F900FBE0F90B1
:100C90001F90189594FF20C083E080938A038BED0A
:100CA00093E0909387038093860380918A03853035
:100CB000D9F680918D0390918E03039709F048C077
:100CC0001092CD0083E08093CC0080E18093C90036
:100CD00086E08093CA00C8CF8330A9F4111134C0D4
:100CE00084E080938A030E9412026093D20370937F
:100CF000D3038093D4039093D5038091860390917E
:100D000087030196CECF843081F6C0918603D091BF
:100D100087038881181759F00E941202609382039A
:100D200070938303809384039093850318832196A3
:100D3000D0938703C093860380918F039091900393
:100D40008C179D0708F090CF85E080938A03ADCF84
:100D500082E080938A0381E08093DA0385CFCF938A
:100D6000DF93CDB7DEB760970FB6F894DEBF0FBE46
:100D7000CDBF789484B5826084BD84B5816084BD24
:100D800085B5826085BD85B5816085BD80916E0029
:100D9000816080936E00109281008091810082605A
:100DA0008093810080918100816080938100809197
:100DB00080008160809380008091B1008460809386
:100DC000B1008091B00081608093B000809191006B
:100DD0008260809391008091910081608093910066
:100DE000809190008160809390008091A10082604A
:100DF0008093A1008091A10081608093A1008091E7
:100E0000A00081608093A000809121018260809386
:100E10002101809121018160809321018091200135
:100E200081608093200180917A00846080937A00B1
:100E300080917A00826080937A0080917A0081604C
:100E400080937A0080917A00806880937A00109273
:100E5000C100E0911B08F0911C0882E08083E091C2
:100E60001708F09118081082E0911908F0911A08FB
:100E700080E1808310922308E0911F08F091200800
:100E800086E08083E0911D08F0911E0880818061DA
:100E90008083E0911D08F0911E0880818860808326
:100EA000E0911D08F0911E08808180688083E091A8
:100EB0001D08F0911E0880818F7D80830E94ED01C6
:100EC0004B015C0148ECC42ED12CE12CF12C0E948A
:100ED000ED01681979098A099B09683E734081050B
:100EE0009105A8F321E0C21AD108E108F10848EE03
:100EF000840E43E0941EA11CB11CC114D104E10472
:100F0000F10429F784E192E00E94890383E292E0F0
:100F10000E94DA0386E492E00E94DA0386E792E018
:100F20000E94DA0381EA92E00E94DA0382E090E014
:100F300090938C0380938B0381E080938A031092BB
:100F40008903109288038BED93E09093870380933D
:100F500086030E9412026093D2037093D30380939E
:100F6000D4039093D5038091D2039091D303A091A1
:100F7000D403B091D5038093820390938303A0930D
:100F80008403B09385031092DA0380E092E090939B
:100F9000010280930002809100029091010285522B
:100FA0009C4F9093900380938F03EBEDF3E01192AD
:100FB00065E0EC3DF607D9F782E090E090938E0370
:100FC00080938D031092C80080918B0390918C03C5
:100FD0009927FC01E253FE4F249188579E4FFC0154
:100FE0008491882399F090E0880F991FFC01EC5AB6
:100FF000FE4FA591B491FC01E259FE4F8591949169
:101000008FB7F894EC91E22BEC938FBF10918B0388
:1010100060E0812F0E94610180918D0390918E0389
:101020008130910509F0D5C061E0812F0E946101F6
:1010300080E290E090930102809300021092CD0034
:1010400089E08093CC0088E48093C9008EE280938D
:10105000CA001092CE0080E092E09093010280934B
:1010600000028BED95E09093900380938F038FECBB
:1010700092E00E94DA031E01F5E02F0E311C02E01F
:1010800010E00E9412022B013C018BE098E00E94CC
:101090007C02181619060CF007C18BE098E00E943C
:1010A0005A02E091D1038A3019F08D3009F0F0C076
:1010B000EE2359F3F0E0EF56FC4F10821D821E82A2
:1010C0001F82188619821A821B821C8241E050E01E
:1010D0004C0F5D1F5F934F933F922F9265ED72E02F
:1010E0007F936F93E1E9F3E0FF93EF930E940C0E7F
:1010F0009A8789870FB6F894DEBF0FBECDBF0297DF
:1011000009F085C089819A81AB81BC81892B8A2BAA
:101110008B2B09F47CC00E945203CD80DE80EF80CF
:10112000F884A8EEB3E0A70196010E94E90D4B01F7
:101130005C01840C951CA61CB71C8092FC07909245
:10114000FD07A092FE07B092FF0729813A814B81EB
:101150005C810E94E90D860E971EA81EB91E809222
:10116000F8079092F907A092FA07B092FB07CD28F2
:10117000CE28CF2809F071C00E9452034092D603B6
:101180005092D7036092D8037092D90369857A850B
:1011900070930108609300088AEE92E00E94E803D1
:1011A0006D817E818F8198854AE00E9496038CEF45
:1011B00092E00E94E80369817A818B819C814AE0F8
:1011C0000E94960384E192E00E9489031092D10369
:1011D0005CCF029709F03FCF8BED93E090938703AC
:1011E0008093860381E080938A031092CD0083E090
:1011F0008093CC0080E98093C90086E08093CA0088
:101200008091C80087FF27CF8091CE00F9CF63EE91
:1012100072E081E993E00E94030E892B29F586E0B4
:1012200093E00E94E803C0900008D09001080D2CC4
:10123000000CEE08FF084AE0C701B601F7FEC0CF78
:101240006DE28BE098E00E94B40266277727CB011D
:101250006C197D098E099F09B2CF81E090E09093CF
:1012600001088093000898CF68E173E081E993E07A
:101270000E94030E892B09F0A9CF10920108109249
:1012800000080E94520384E193E00E94DA039ECF9B
:10129000EF3308F09BCF91E09E0F9093D103F0E0E5
:1012A000EF56FC4F8083F1CE8091000890910108A9
:1012B0000197D9F48091FC079091FD07A091FE075A
:1012C000B091FF07481659066A067B0670F00E9427
:1012D00052034092D6035092D7036092D803709283
:1012E000D9031093010800930008809100089091A1
:1012F0000108029709F00DC18091F8079091F90754
:10130000A091FA07B091FB07481659066A067B06BA
:1013100008F4FFC08091D6039091D703A091D80321
:10132000B091D90353014201881A990AAA0ABB0A4B
:10133000C090F105D090F205E090F305F090F4052F
:1013400081149104A104B10409F493C1C701B60149
:101350000E94960C20E030E04AE754E40E944D0DD4
:1013600069877A878B879C87C501B4010E94960C98
:101370009B01AC0169857A858B859C850E94F50B64
:1013800069877A878B879C876091E5057091E60570
:101390008091E7059091E805C60ED71EE81EF91E5C
:1013A000C114D104E104F10409F468C10E94960C4F
:1013B00020E030E048EC52E40E944D0D6D877E87BE
:1013C0008F87988BC701B6010E94960C9B01AC01D8
:1013D0006D857E858F8598890E94F50B6B017C0158
:1013E0008EE193E00E94E803C501B40128EE33E0EA
:1013F00040E050E00E94BF0DCA01B9014AE00E94DE
:1014000096038EE293E00E94E8036091F1057091EB
:10141000F2058091F3059091F4054AE00E9496034D
:1014200088E393E00E94E80342E069857A858B8532
:101430009C850E94EA038FE393E00E94E803609199
:10144000E5057091E6058091E7059091E8054AE091
:101450000E94960386E493E00E94E8036091E10510
:101460007091E2058091E3059091E4054AE00E94C5
:1014700096038DE493E00E94E80341E0C701B601C2
:101480000E94EA0384E593E00E94E8036091DD0591
:101490007091DE058091DF059091E0054AE00E94A1
:1014A00096038FE593E00E94E8036091E90570914F
:1014B000EA058091EB059091EC054AE00E949603C5
:1014C00089E693E00E94E8036091DC0570E090E01B
:1014D00080E04AE00E94960385E793E00E94E803DB
:1014E0000E941202C090D203D090D303E090D403A4
:1014F000F090D5036C197D098E099F094AE00E947E
:1015000096038FE793E00E94DA031092010810928D
:1015100000088091DA03882309F4A8C01092DA0346
:101520008091000890910108029709F09FC081E026
:1015300092E0EBEDF3E0A7EFB5E001900D9201979B
:10154000E1F72091F8053091F605332329F08091D9
:10155000F505281709F48AC08091F1059091F205EC
:10156000A091F305B091F4050196A11DB11D8093E2
:10157000F1059093F205A093F305B093F40533239E
:1015800009F465C08091ED059091EE05A091EF05FD
:10159000B091F005B301A201481B590B6A0B7B0BFC
:1015A000DB01CA014091E9055091EA056091EB0524
:1015B0007091EC05481759076A077B0740F4809340
:1015C000E9059093EA05A093EB05B093EC058091B3
:1015D000F505522F581B852F523068F18150990B19
:1015E000092E000CAA0BBB0B4091E5055091E605B6
:1015F0006091E7057091E805840F951FA61FB71F3E
:101600008093E5059093E605A093E705B093E80580
:101610008091E1059091E205A091E305B091E40588
:101620000196A11DB11D8093E1059093E205A09361
:10163000E305B093E405E8EFF5E048EF57E0822FCB
:10164000919198131FC08F5F4E175F07C9F72093C2
:10165000F5052093DC0581E08093F6054092ED05C9
:101660005092EE056092EF057092F0050E94210302
:1016700008CD19861A861B861C8686CEC12CD12CD5
:101680007601AECE8091DD059091DE05A091DF055B
:10169000B091E0050196A11DB11D8093DD059093E9
:1016A000DE05A093DF05B093E005D1CFEBE0F8E0D5
:1016B0001382128288EE93E0A0E0B0E084839583E9
:1016C000A683B78386E092E09183808385EC90E0E7
:1016D0009587848784EC90E09787868780EC90E0FC
:1016E000918B808B81EC90E0938B828B82EC90E0ED
:1016F000958B848B86EC90E0978B868B118E128E67
:10170000138E148E08955058BB27AA270E949B0B56
:101710000C940E0D0E94000D38F00E94070D20F071
:1017200039F49F3F19F426F40C94FD0C0EF4E09567
:10173000E7FB0C94F70CE92F0E941F0D58F3BA1722
:10174000620773078407950720F079F4A6F50C94D7
:10175000410D0EF4E0950B2EBA2FA02D0B01B9010F
:1017600090010C01CA01A0011124FF27591B99F017
:10177000593F50F4503E68F11A16F040A22F232F23
:10178000342F4427585FF3CF469537952795A79573
:10179000F0405395C9F77EF41F16BA0B620B730B1A
:1017A000840BBAF09150A1F0FF0FBB1F661F771F8B
:1017B000881FC2F70EC0BA0F621F731F841F48F440
:1017C000879577956795B795F7959E3F08F0B0CFC9
:1017D0009395880F08F09927EE0F979587950895B0
:1017E0000E94D30C08F481E008950E94090C0C9427
:1017F0000E0D0E94070D58F00E94000D40F029F4D4
:101800005F3F29F00C94F70C51110C94420D0C948D
:10181000FD0C0E941F0D68F39923B1F3552391F33A
:10182000951B550BBB27AA2762177307840738F04F
:101830009F5F5F4F220F331F441FAA1FA9F335D0AC
:101840000E2E3AF0E0E832D091505040E695001C60
:10185000CAF72BD0FE2F29D0660F771F881FBB1F1A
:10186000261737074807AB07B0E809F0BB0B802DF8
:10187000BF01FF2793585F4F3AF09E3F510578F024
:101880000C94F70C0C94420D5F3FE4F3983ED4F3B4
:10189000869577956795B795F7959F5FC9F7880FF8
:1018A000911D9695879597F90895E1E0660F771F4A
:1018B000881FBB1F621773078407BA0720F0621BDB
:1018C000730B840BBA0BEE1F88F7E09508950E9406
:1018D000270D88F09F5798F0B92F9927B751B0F08E
:1018E000E1F0660F771F881F991F1AF0BA95C9F7A4
:1018F00014C0B13091F00E94410DB1E008950C94F4
:10190000410D672F782F8827B85F39F0B93FCCF3A6
:10191000869577956795B395D9F73EF49095809520
:10192000709561957F4F8F4F9F4F0895E89409C040
:1019300097FB3EF490958095709561957F4F8F4F02
:101940009F4F9923A9F0F92F96E9BB279395F69518
:10195000879577956795B795F111F8CFFAF4BB0F96
:1019600011F460FF1BC06F5F7F4F8F4F9F4F16C0FA
:10197000882311F096E911C0772321F09EE8872F84
:10198000762F05C0662371F096E8862F70E060E040
:101990002AF09A95660F771F881FDAF7880F9695B9
:1019A000879597F90895990F0008550FAA0BE0E85D
:1019B000FEEF16161706E807F907C0F01216130611
:1019C000E407F50798F0621B730B840B950B39F451
:1019D0000A2661F0232B242B252B21F408950A26B7
:1019E00009F4A140A6958FEF811D811D089597F9F7
:1019F0009F6780E870E060E008959FEF80EC0895B5
:101A000000240A94161617061806090608950024DD
:101A10000A9412161306140605060895092E039457
:101A2000000C11F4882352F0BB0F40F4BF2B11F4CB
:101A300060FF04C06F5F7F4F8F4F9F4F089557FD2A
:101A40009058440F551F59F05F3F71F04795880F2C
:101A500097FB991F61F09F3F79F0879508951216C3
:101A600013061406551FF2CF4695F1DF08C016166F
:101A700017061806991FF1CF869571056105089420
:101A80000895E894BB2766277727CB0197F9089537
:101A90000E94D30C08F48FEF08950E94600D0C94FF
:101AA0000E0D0E94000D38F00E94070D20F09523C6
:101AB00011F00C94F70C0C94FD0C11240C94420DB5
:101AC0000E941F0D70F3959FC1F3950F50E0551FB5
:101AD000629FF001729FBB27F00DB11D639FAA2783
:101AE000F00DB11DAA1F649F6627B00DA11D661FD2
:101AF000829F2227B00DA11D621F739FB00DA11DF3
:101B0000621F839FA00D611D221F749F3327A00DAC
:101B1000611D231F849F600D211D822F762F6A2F48
:101B200011249F5750409AF0F1F088234AF0EE0FAD
:101B3000FF1FBB1F661F771F881F91505040A9F7DA
:101B40009E3F510580F00C94F70C0C94420D5F3FC2
:101B5000E4F3983ED4F3869577956795B795F79516
:101B6000E7959F5FC1F7FE2B880F911D969587958E
:101B700097F908950E94D30C880B990B0895A1E260
:101B80001A2EAA1BBB1BFD010DC0AA1FBB1FEE1FF7
:101B9000FF1FA217B307E407F50720F0A21BB30B42
:101BA000E40BF50B661F771F881F991F1A9469F7BE
:101BB00060957095809590959B01AC01BD01CF011A
:101BC0000895EE0FFF1F881F8BBF0790F691E02D41
:101BD00019940E94F40DA59F900DB49F900DA49FA1
:101BE000800D911D11240895A29FB001B39FC001E3
:101BF000A39F700D811D1124911DB29F700D811D39
:101C00001124911D0895FB01DC018D910190801933
:101C10000110D9F3990B0895CF93DF93CDB7DEB7B9
:101C20002E970FB6F894DEBF0FBECDBF85E08C8334
:101C30008C899D899A838983AE01485E5F4F6E8946
:101C40007F89CE0101960E94D80F2E960FB6F89488
:101C5000DEBF0FBECDBFDF91CF91089520FD09C03B
:101C6000FC0123FD05C022FF02C073836283518300
:101C70004083089544FD17C046FD1DC0DB01FC01F3
:101C8000AA0FBB1FEE1FFF1F1094D1F76A0F7B1F17
:101C90008E1F9F1F660F771F881F991F620F711D70
:101CA000811D911D089533E0660F771F881F991FCE
:101CB0003150D1F7F3CF34E0F7CF0F931F93CF9389
:101CC000DF938C01C8010E940511EC0197FD08C04B
:101CD0000E94F110892BB1F7B801CE010E94411189
:101CE000CE01DF91CF911F910F9108958F929F9216
:101CF000AF92BF92EF92FF920F931F93CF93DF9318
:101D00008C01D62F7A01B22E0E9405119C01332737
:101D10002B32310529F02D323105A9F46894B7F83A
:101D2000D15061F480E0DF91CF911F910F91FF902E
:101D3000EF90BF90AF909F908F900895C8010E9440
:101D4000051197FDEFCFCB2DCD7F2B2D2073F9F40F
:101D50008033E9F4AA24AA94AD0E89F0C8010E9448
:101D6000051197FD0CC0282F2F7D283561F4C26422
:101D7000D25029F0C8010E94051197FF08C0812C9C
:101D8000912C54011BC0B6FE2BC0C260DA2D812CF1
:101D9000912C540120ED280F283028F1C4FD09C0F2
:101DA0002A3008F1C6FF05C02F7D3FEE320F3630D6
:101DB000C8F0B8010E944111C1FFB4CFC7FF08C0ED
:101DC000B094A09490948094811C911CA11CB11C8F
:101DD0002C2FB501A401C7010E942E0E81E0A3CFD4
:101DE000C261D4CF27504C2FC501B4010E943A0ED6
:101DF0004B015C01C260D15009F3C8010E9405117A
:101E000097FFC8CFD9CF7F928F929F92AF92BF9208
:101E1000CF92DF92EF92FF920F931F93CF93DF93B6
:101E2000CDB7DEB7A0970FB6F894DEBF0FBECDBF1B
:101E30005C01962E7A01CE0101966C0180E2F601DA
:101E400011928A95E9F7F501B381890130E020E02C
:101E5000712C812CA0E041E050E0F801B3FD8591A8
:101E6000B3FF8191982F8F01811117C010E000E01E
:101E7000C801A0960FB6F894DEBF0FBECDBFDF91AC
:101E8000CF911F910F91FF90EF90DF90CF90BF9077
:101E9000AF909F908F907F9008958E3519F4211503
:101EA000310541F1A21713064CF48D3549F18D32FD
:101EB00029F4811006C0882483941DC0882009F469
:101EC00064C0E92FE695E695E695EC0DFD2DF11D34
:101ED000892F8770BA0101C0660F8A95EAF7808161
:101EE000682B6083791651F0971510F49F5FE9CF46
:101EF0009150E7CFA1E02F5F3F4FAFCF812CFBCFB9
:101F0000882019F08E8180628E83AA2359F0F60111
:101F10009E012F5D3F4F8081809580833196E2172F
:101F2000F307C9F788248394C5010E94051197FD22
:101F300016C0E82FE695E695E695EC0DFD2DF11D12
:101F4000208130E0AC014770552702C035952795B8
:101F50004A95E2F720FD06C0B5010E944111882094
:101F600069F084CFE114F10429F0F7018083C701FF
:101F700001967C019A94812C9110D6CFE114F10442
:101F800009F476CFF701108273CFE82FE695E69536
:101F9000E695EC0DFD2DF11D982F9770BA0101C04B
:101FA000660F9A95EAF79081692B6083782EA3CF0C
:101FB0005F926F927F928F929F92AF92BF92CF92D9
:101FC000DF92EF92FF920F931F93CF93DF936C01F9
:101FD000EB015A01FC0117821682512CF601E380B5
:101FE000FE01E3FC8591E3FE8191182FEF01882328
:101FF000E9F090E00E94F110892B21F0C6010E94C7
:102000005D0EECCF153241F4FE01E3FC1591E3FEC9
:102010001191EF01153269F4C6010E94051197FD77
:102020008EC01817D9F2B6010E944111852D90E09B
:102030008AC000E01A3231F4E3FC1591E3FE1191FD
:10204000EF0101E0F12C20ED210F2A3048F101FFD2
:1020500037C0FF2059F31836B1F11C3609F43DC0E2
:10206000112321F3612F70E088E491E00E94FA10BF
:10207000892BE1F2912C812C00FD06C0F5018080B6
:102080009180C50102965C011E3679F5F601468104
:10209000578170E060E0202FC4010E942E0E9ECF79
:1020A00002606F2D70E090E080E040E20E943A0E06
:1020B000F62EFE01E3FC1591E3FE1191EF01C3CF73
:1020C000FF24FA94C8CFFE01E3FC1591E3FE1191C1
:1020D000EF01183609F0C4CF08600460FE01E3FC8C
:1020E0001591E3FE1191EF01BBCF1336C1F401FD51
:1020F00002C0FF24F394C6010E94051197FD1FC082
:102100008114910429F0F4018083C40101964C01EB
:10211000FA94F110F0CF00FD61CF53945FCF1B35DF
:1021200011F59E01A4016F2DC6010E94030FEC0161
:10213000892B89F7F6018381807309F477CF8FEFBC
:102140009FEF511073CFDF91CF911F910F91FF90AF
:10215000EF90DF90CF90BF90AF909F908F907F9047
:102160006F905F900895C6010E945D0E97FDE7CFC6
:102170001F36A9F130F4143641F0193639F00064F5
:1021800005C01337B9F01537D1F70062202FA4012D
:102190006F2DC6010E94760E8111BDCFCBCF811469
:1021A000910429F0F4016082C40101964C01FA9473
:1021B000FF2071F0C6010E9405113C0197FD08C087
:1021C0000E94F110892B59F3B601C3010E944111FD
:1021D0008114910409F49FCFF40110829CCF006117
:1021E000D5CF91110C945911803219F08950855036
:1021F000C8F70895FC010590061621F00020D9F7D4
:10220000C00108953197CF010895CF93DF93EC017A
:102210002B8120FF1AC026FF0CC02F7B2B838E81C1
:102220009F8101969F838E838A8190E0DF91CF9179
:10223000089522FF18C0E881F9818081082E000CE2
:10224000990B009729F420622B838FEF9FEFEECF3D
:102250003196F983E8832E813F812F5F3F4F3F8383
:102260002E839927E3CFEA85FB85199597FFF3CF56
:102270002B81019621F080E2822B8B83E6CF80E1D7
:10228000FBCFFB01238120FF11C026FD0FC08F3F34
:10229000980771F082832F7D206423832681378104
:1022A0002150310937832683992708958FEF9FEFB7
:1022B0000895992788270895F894FFCF20000000FB
:1022C0000000B4021E024B0201037C025A026E029D
:1022D0000D0A006E616E00696E66006F7666003DE5
:1022E0003D3D20444D582072656672657368206DCF
:1022F0006F6E69746F7220284D45474129203D3D1E
:102300003D00444D5820696E707574203A20555335
:1023100041525431202870696E2031392052582999
:1023200020205B444D585F5553455F504F52543108
:102330005D0054656C656D65747279203A20555363
:10234000422053657269616C202870696E73203079
:102350002F31292040203131353230300050617426
:102360007465726E2020203A206368616E6E656C21
:102370002063203D202873657138202B2063202D99
:1023800020312920262030784646005245414459C4
:1023900000535441525420256C7520256C75005310
:1023A00054415455530041434B20535441525420FF
:1023B000736574746C653D00206D6561737572653D
:1023C0003D005354415455532073746174653D006E
:1023D00041434B2041424F525400524553554C54B7
:1023E000207365636F6E64733D0020757064617463
:1023F00065733D0020726174653D00206C6F7374DD
:102400003D0020676170733D00206C6F73733D0069
:1024100025207061745F6572723D00206D61785F88
:102420006761703D00206C6173745F736571383D46
:0E24300000206E6F5F646174613D006D73008B
:020000040003F7
:10E000000D9489F10D94B2F10D94B2F10D94B2F129
:10E010000D94B2F10D94B2F10D94B2F10D94B2F1F0
:10E020000D94B2F10D94B2F10D94B2F10D94B2F1E0
:10E030000D94B2F10D94B2F10D94B2F10D94B2F1D0
:10E040000D94B2F10D94B2F10D94B2F10D94B2F1C0
:10E050000D94B2F10D94B2F10D94B2F10D94B2F1B0
:10E060000D94B2F10D94B2F10D94B2F10D94B2F1A0
:10E070000D94B2F10D94B2F10D94B2F10D94B2F190
:10E080000D94B2F10D94B2F10D94B2F10D94B2F180
:10E090000D94B2F10D94B2F10D94B2F10D94B2F170
:10E0A0000D94B2F10D94B2F10D94B2F10D94B2F160
:10E0B0000D94B2F10D94B2F10D94B2F10D94B2F150
:10E0C0000D94B2F10D94B2F10D94B2F10D94B2F140
:10E0D0000D94B2F10D94B2F10D94B2F10D94B2F130
:10E0E0000D94B2F141546D656761323536300041AF
:10E0F000726475696E6F206578706C6F72657220DE
:10E1000073746B3530305632206279204D4C530099
:10E11000426F6F746C6F616465723E004875683F52
:10E1200000436F6D70696C6564206F6E203D200048
:10E130004350552054797065202020203D20005FF9
:10E140005F4156525F415243485F5F3D2000415658
:10E1500052204C696243205665723D20004743437C
:10E160002056657273696F6E203D20004350552024
:10E1700049442020202020203D20004C6F7720663D
:10E18000757365202020203D20004869676820665F
:10E190007573652020203D200045787420667573D6
:10E1A00065202020203D20004C6F636B2066757336
:10E1B000652020203D20004D617220203720323024
:10E1C000313300312E362E3800342E332E350056A2
:10E1D00023202020414444522020206F7020636F70
:10E1E00064652020202020696E73747275637469E1
:10E1F0006F6E2061646472202020496E74657272B3
:10E20000757074006E6F20766563746F7200726A49
:10E210006D702020006A6D70200057686174207056
:10E220006F72743A00506F7274206E6F7420737541
:10E2300070706F72746564004D7573742062652030
:10E2400061206C6574746572002000577269747483
:10E25000696E672045450052656164696E672045B7
:10E26000450045452065727220636E743D00504F35
:10E27000525400303D5A65726F2061646472003FF1
:10E280003D43505520737461747300403D454550C3
:10E29000524F4D207465737400423D426C696E6B41
:10E2A000204C454400453D44756D70204545505215
:10E2B0004F4D00463D44756D7020464C415348001B
:10E2C000483D48656C70004C3D4C69737420492F83
:10E2D0004F20506F72747300513D51756974005234
:10E2E0003D44756D702052414D00563D73686F7707
:10E2F00020696E7465727275707420566563746FF0
:10E30000727300593D506F727420626C696E6B00BD
:10E310002A0011241FBECFEFD1E2DEBFCDBF01E046
:10E320000CBF12E0A0E0B2E0EEE1FDEF03E00BBFB6
:10E3300002C007900D92A030B107D9F712E0A0E01B
:10E34000B2E001C01D92AE30B107E1F70F9460F367
:10E350000D948DFE01E20EBF0FEF0DBF11241FBE05
:10E360000D9460F30D9400F020E030E040ED57E0B4
:10E3700005C0FA013197F1F72F5F3F4F2817390792
:10E38000C0F308959C01260F311DC901A0E0B0E043
:10E390002F5F3F4FABBFFC018791882361F08093D3
:10E3A000C6008091C00086FFFCCF8091C0008064D1
:10E3B0008093C000EACF08958DE08093C6008091DD
:10E3C000C00086FFFCCF8091C00080648093C000B5
:10E3D0008AE08093C6008091C00086FFFCCF8091C8
:10E3E000C00080648093C00008950F94C2F10F9420
:10E3F000DCF10895FC019081992359F09093C600B7
:10E400008091C00086FFFCCF8091C0008064809323
:10E41000C0003196992379F70895282F982F929567
:10E420009F70892F805D8A3308F0895F8093C600D2
:10E430008091C00086FFFCCF8091C00080648093F3
:10E44000C000822F8F70982F905D9A3308F0995FEB
:10E450009093C6008091C00086FFFCCF8091C000E1
:10E4600080648093C00008959C01FB01853691056E
:10E470001CF46330710594F0C90164E670E00F94F8
:10E480002EFE605D7F4F6093C6008091C00086FFC6
:10E49000FCCF8091C00080648093C0002B30310598
:10E4A00014F43297B4F0C90164E670E00F942EFEC4
:10E4B0006AE070E00F942EFE605D7F4F6093C600AF
:10E4C0008091C00086FFFCCF8091C0008064809363
:10E4D000C000C9016AE070E00F942EFEC0968093E0
:10E4E000C6008091C00086FFFCCF8091C000806490
:10E4F0008093C00008951F93182F8EE692EE60E07F
:10E500000F94C2F11093C6008091C00086FFFCCF2B
:10E510008091C00080648093C0000F94DCF11F9153
:10E5200008952F923F924F925F926F927F928F92B7
:10E530009F92AF92BF92CF92DF92EF92FF920F9392
:10E540001F93DF93CF93CDB7DEB762970FB6F894E2
:10E55000DEBF0FBECDBF382E622ECA01DB015C01CB
:10E560006D01772420E2222E2E010894411C511CBB
:10E570008BC081E0A81680E0B80681E0C80680E084
:10E58000D80628F0C601AA27BB270F940DF2BB2797
:10E59000AD2D9C2D8B2D0F940DF28A2D0F940DF225
:10E5A0002092C6008091C00086FFFCCF8091C00001
:10E5B00080648093C0009DE29093C6008091C0006B
:10E5C00086FFFCCF8091C00080648093C0002092C1
:10E5D000C6008091C00086FFFCCF8091C00080649F
:10E5E0008093C00019828601750188249924A1E0D6
:10E5F0003A1651F03A1620F0B2E03B1661F409C029
:10E600000BBFF701779007C0C7010F9477FE782EF4
:10E6100002C0F7017080872D0F940DF22092C60082
:10E620008091C00086FFFCCF8091C0008064809301
:10E63000C000872D8052F401EF70F0708F3520F408
:10E64000E40DF51D708204C0E40DF51D8EE280839B
:10E650000894E11CF11C011D111D0894811C911CE2
:10E6600090E18916910409F0C2CF80E190E0A0E02A
:10E67000B0E0A80EB91ECA1EDB1E198AC2010F9493
:10E68000FAF10F94DCF16A94662009F072CF629679
:10E690000FB6F894DEBF0FBECDBFCF91DF911F91B3
:10E6A0000F91FF90EF90DF90CF90BF90AF909F9031
:10E6B0008F907F906F905F904F903F902F90089534
:10E6C0002F923F924F925F926F927F928F929F9282
:10E6D000AF92BF92CF92DF92EF92FF920F931F9370
:10E6E000DF93CF93CDB7DEB7CD53D1400FB6F894BB
:10E6F000DEBF0FBECDBF01E20EBF0FEF0DBF94B75F
:10E70000F894A89514BE80916000886180936000A1
:10E7100010926000789493FF05C0E0910002F091A0
:10E7200001021995279A2F9A8091C00082608093E8
:10E73000C00080E18093C40088E18093C1000000A4
:10E74000EE24FF24870144E0A42EB12CCC24DD2448
:10E7500024C0C5010197F1F70894E11CF11C011DCB
:10E76000111D21E2E2162EE4F20620E0020720E06D
:10E77000120718F031E0C32ED12CC801B70127ECE5
:10E780003BE140E050E00F9441FE611571058105C9
:10E79000910519F485B1805885B98091C00087FD35
:10E7A00003C0C114D104A9F2A6014F5F5F4FC25E3E
:10E7B000DE4F59834883CE51D140C25EDE4F8881FF
:10E7C0009981CE51D140019711F00D9410FEC05D9A
:10E7D000DE4F19821882C053D14060E0C15DDE4F28
:10E7E0001882CF52D14088249924C35DDE4F19820C
:10E7F0001882CD52D140C05EDE4F188219821A8233
:10E800001B82C052D140CE5CDE4F188219821A8220
:10E810001B82C253D140EE24FF2487010BBFF701B6
:10E8200007911691C45CDE4F19830883CC53D14005
:10E830000D940BFEC25EDE4F28813981CE51D1404E
:10E840002130310509F52091C600C25EDE4F1982E4
:10E850001882CE51D14022C02F5F3F4F4F4F5F4FA4
:10E86000213082E138078AE7480780E0580780F0C6
:10E87000C45CDE4FE881F981CC53D140EF5FFF4F9C
:10E8800019F0EE27FF27099420E030E040E050E047
:10E890008091C00087FFE0CF2091C600C35DDE4FAE
:10E8A00048815981CD52D1404F5F5F4FC35DDE4FEC
:10E8B00059834883CD52D140213209F063C64A3092
:10E8C000510508F05FC60894811C911C53E0851621
:10E8D000910409F059C600E010E018C081E280936D
:10E8E000C6008091C00086FFFCCF8091C00080648C
:10E8F0008093C0002F5F3F4F2931310579F70F9486
:10E90000DCF10F5F1F4F0530110519F020E030E0FA
:10E91000E5CF10920A0210920B0210920C02109294
:10E920000D02109206021092070210920802109235
:10E930000902109202021092030210920402109235
:10E9400005028FEE90EE60E00F94F5F180E191EE1C
:10E9500060E00F94C2F18091C00087FFFCCF9091DE
:10E96000C600903608F09F759032B8F09093C600BC
:10E970008091C00086FFFCCF8091C00080648093AE
:10E98000C000A0E2A093C6008091C00086FFFCCF2B
:10E990008091C00080648093C000983409F4D7C18E
:10E9A0009934B8F4923409F459C1933458F490333B
:10E9B00019F1903308F4E3C59F33A1F1903409F0C5
:10E9C000DEC5BDC0953409F470C1963409F0D7C5D1
:10E9D00098C1923509F42BC2933538F49C3409F46C
:10E9E000F5C1913509F0CBC518C2963509F445C279
:10E9F000993509F0C4C567C483E792EE62E00F94CD
:10EA0000F5F110920602109207021092080210927D
:10EA1000090210920A0210920B0210920C0210923C
:10EA20000D0213C18FE792EE62E00F94F5F18FEEC5
:10EA300090EE60E00F94F5F181E291EE60E00F94CA
:10EA4000C2F187EB91EE60E00F94F5F180E391EE77
:10EA500060E00F94C2F184EE90EE60E00F94F5F167
:10EA60008FE391EE60E00F94C2F186E090E061E008
:10EA700070E00F9434F20F94DCF18DE591EE60E0DC
:10EA80000F94C2F189EC91EE60E00F94F5F18EE401
:10EA900091EE60E00F94C2F183EC91EE60E00F9490
:10EAA000F5F18CE691EE60E00F94C2F18EE10F94E7
:10EAB0000DF288E90F940DF281E00F940DF20F949E
:10EAC000DCF18BE791EE60E00F94C2F119E0E0E039
:10EAD000F0E010935700E4918E2F0F940DF20F94F5
:10EAE000DCF18AE891EE60E00F94C2F1E3E0F0E03F
:10EAF00010935700E4918E2F0F940DF20F94DCF1D8
:10EB000089E991EE60E00F94C2F1E2E0F0E0109349
:10EB10005700E4918E2F0F940DF20F94DCF188EAE8
:10EB200091EE60E00F94C2F1E1E0F0E01093570045
:10EB30001491812F0F940DF20F94DCF107CF8BE825
:10EB400092EE62E00F94F5F18BE492EE60E00F94A8
:10EB5000F5F10F94DCF100E010E019C0C8016F2D51
:10EB60000F947FFEFF2031F489E492EE60E00F9471
:10EB7000C2F10BC0F092C6008091C00086FFFCCFAE
:10EB80008091C00080648093C0000F5F1F4FC80158
:10EB900081519F41A0E0B0E0ABBFFC01F790BAE229
:10EBA000FB1621F0E2E000301E07C1F60F94DCF105
:10EBB0000F94DCF187E592EE60E00F94F5F10F948D
:10EBC000DCF1CC24DD2400E010E01EC0C8010F946D
:10EBD00077FEF82E882331F489E492EE60E00F94FA
:10EBE000C2F10BC08093C6008091C00086FFFCCFAD
:10EBF0008091C00080648093C000FE1419F00894D6
:10EC0000C11CD11C0F5F1F4FC80181519F41A0E063
:10EC1000B0E0ABBFFC01E790FAE2EF1621F022E092
:10EC20000030120799F60F94DCF10F94DCF182E6C4
:10EC300092EE60E00F94C2F1C60161E070E00F94C3
:10EC400034F20F94DCF10F94DCF110920202109276
:10EC50000302109204021092050278CE89E992EE26
:10EC600062E00F94F5F1279A2F9A16C02F9880E052
:10EC700090E0E0EDF7E03197F1F7019684369105E9
:10EC8000C1F72F9A80E090E0E0EDF7E03197F1F7DF
:10EC9000019684369105C1F78091C00087FFE6CFC9
:10ECA0008091C00087FFFCCF64C485EA92EE62E0E9
:10ECB0000F94F5F140910202509103026091040219
:10ECC0007091050281E020E10F9491F2809102029F
:10ECD00090910302A0910402B091050280509F4FD1
:10ECE000AF4FBF4F8093020290930302A0930402A0
:10ECF000B093050280509041A040B04008F426CE69
:10ED0000A4CF83EB92EE62E00F94F5F140910602FE
:10ED100050910702609108027091090280E020E1A1
:10ED20000F9491F28091060290910702A09108023F
:10ED3000B091090280509F4FAF4FBF4F80930602A2
:10ED400090930702A0930802B0930902FFCD80ECD4
:10ED500092EE62E00F94F5F183E792EE60E00F949B
:10ED6000F5F18FE792EE60E00F94F5F18BE892EE0B
:10ED700060E00F94F5F189E992EE60E00F94F5F10F
:10ED800085EA92EE60E00F94F5F183EB92EE60E09D
:10ED90000F94F5F180EC92EE60E00F94F5F187ECC2
:10EDA00092EE60E00F94F5F188ED92EE60E00F9442
:10EDB000F5F18FED92EE60E00F94F5F18AEE92EEB0
:10EDC00060E00F94F5F183E093EEBDCD87EC92EE19
:10EDD00062E00F94F5F181E40F947BF282E40F94EA
:10EDE0007BF283E40F947BF284E40F947BF285E45E
:10EDF0000F947BF286E40F947BF287E40F947BF20E
:10EE000088E40F947BF28AE40F947BF28BE40F94F6
:10EE10007BF28CE40F947BF299CD88ED92EE62E068
:10EE20000F94F5F1772473948824992409C48FED05
:10EE300092EE62E00F94F5F140910A0250910B02BC
:10EE400060910C0270910D0282E020E10F9491F22A
:10EE500080910A0290910B02A0910C02B0910D02D8
:10EE600080509F4FAF4FBF4F80930A0290930B0289
:10EE7000A0930C02B0930D0269CD8AEE92EE62E08F
:10EE80000F94F5F184EE90EE60E00F94F5F18FECC5
:10EE900091EE60E00F94F5F1662477244301CC5D98
:10EEA000DE4F19821882C452D140D401C301B695F5
:10EEB000A79597958795CA5DDE4F88839983AA8326
:10EEC000BB83C652D140CC5DDE4FA881B981C4520C
:10EED000D1401196CC5DDE4FB983A883C452D14096
:10EEE000CD0162E070E00F9434F2B0E2B093C6005E
:10EEF0008091C00086FFFCCF8091C0008064809329
:10EF0000C000EDE2E093C6008091C00086FFFCCF18
:10EF10008091C00080648093C000F0E2F093C6004E
:10EF20008091C00086FFFCCF8091C00080648093F8
:10EF3000C000CA5DDE4FE880F9800A811B81C6529D
:10EF4000D140BB27A12F902F8F2D0F940DF2CA5DBA
:10EF5000DE4F8881C652D1400F940DF2B0E2FB2EF5
:10EF6000F092C6008091C00086FFFCCF8091C00067
:10EF700080648093C0000DE30093C6008091C000C0
:10EF800086FFFCCF8091C00080648093C00010E2B7
:10EF90001093C6008091C00086FFFCCF8091C00016
:10EFA00080648093C0008BBEF3012791C65DDE4F65
:10EFB0002883CA52D140A22EBB24CC24DD2408943D
:10EFC000611C711C811C911C8BBEF3018791282E42
:10EFD0003324442455240894611C711C811C911C09
:10EFE0008BBEF3013791C55DDE4F3883CB52D140E4
:10EFF0000894611C711C811C911C8BBEF30147910C
:10F00000C45DDE4F4883CC52D140ADEFEA2EAFEF66
:10F01000FA2EAFEF0A2FAFEF1A2F6E0C7F1C801E57
:10F02000911E142D032DF22CEE24EA0CFB1C0C1D5A
:10F030001D1D0F940DF220E22093C6008091C000A8
:10F0400086FFFCCF8091C00080648093C000C65DC5
:10F05000DE4F8881CA52D1400F940DF230E23093D6
:10F06000C6008091C00086FFFCCF8091C000806404
:10F070008093C000C45DDE4F8881CC52D1400F9494
:10F080000DF240E24093C6008091C00086FFFCCFA5
:10F090008091C00080648093C000C55DDE4F888190
:10F0A000CB52D1400F940DF250E25093C6008091A4
:10F0B000C00086FFFCCF8091C00080648093C000B8
:10F0C0008FEFE8168FEFF80680E0080780E018075A
:10F0D00031F484E092EE60E00F94C2F1DFC0D80119
:10F0E000C7018070907CA070B0708050904CA040A0
:10F0F000B040D1F52FEF3FE340E050E0E222F322B1
:10F1000004231523CA5DDE4FA880B980CA80DB8046
:10F11000C652D140AE0CBF1CC01ED11EAA0CBB1CD7
:10F12000CC1CDD1C8EE092EE60E00F94C2F1BB2798
:10F13000A12F902F8F2D0F940DF28E2D0F940DF285
:10F1400030E23093C6008091C00086FFFCCF8091F2
:10F15000C00080648093C0004EE34093C60080915D
:10F16000C00086FFFCCF87C08EE09EEFA0E0B0E03D
:10F17000E822F9220A231B239CE0E91694E9F90608
:10F1800090E0090790E0190709F088C0C45DDE4FE0
:10F19000A881CC52D140EA2EFF2400E010E0102FCD
:10F1A0000F2DFE2CEE24C55DDE4FB881CB52D14031
:10F1B000EB0EF11C011D111DD601C501817090706F
:10F1C000A070B070DC0199278827E80EF91E0A1F8D
:10F1D0001B1F20EF30E040E050E0A222B322C42207
:10F1E000D52241E1AA0CBB1CCC1CDD1C4A95D1F7F1
:10F1F000EA0CFB1C0C1D1D1D81E090E0A0E0B0E0BE
:10F20000282239224A225B2235E1220C331C441C7D
:10F21000551C3A95D1F7E20CF31C041D151D57013E
:10F220006801AA0CBB1CCC1CDD1C85E192EE60E0E1
:10F230000F94C2F1C801AA27BB270F940DF2BB2778
:10F24000A12F902F8F2D0F940DF28E2D0F940DF274
:10F2500090E29093C6008091C00086FFFCCF809121
:10F26000C00080648093C000AEE3A093C60080918C
:10F27000C00086FFFCCF8091C00080648093C000F6
:10F28000C601AA27BB270F940DF2BB27AD2D9C2DDD
:10F290008B2D0F940DF28A2D0F940DF20F94DCF14B
:10F2A000CC5DDE4FE881F981C452D140F99709F471
:10F2B0004DCBF4E0EF2EF12C012D112D6E0C7F1CA7
:10F2C000801E911EF2CD83E093EE62E00F94F5F183
:10F2D0008AE192EE60E00F94C2F18091C00087FF56
:10F2E000FCCF1091C6001F751093C6008091C0001E
:10F2F00086FFFCCF8091C00080648093C0000F9493
:10F30000DCF1812F81548A3108F036C1163409F4BA
:10F3100095C0173490F4133409F44EC0143430F40B
:10F320001134F1F0123409F01DC130C0143409F465
:10F3300059C0153409F016C16BC01A3409F4C4C0A1
:10F340001B3438F4173409F48FC0183409F00AC19B
:10F35000A1C01B3409F4D2C01C3409F003C1E8C0B9
:10F360008FEF81B90DC082B1809582B980E090E0C5
:10F37000E0EDF7E03197F1F70196883C9105C1F790
:10F380008091C00087FFEFCF12B8EFC08FEF84B934
:10F390000DC085B1809585B980E090E0E0EDF7E0A3
:10F3A0003197F1F70196883C9105C1F78091C00033
:10F3B00087FFEFCF15B8D9C08FEF87B90DC088B1DF
:10F3C000809588B980E090E0E0EDF7E03197F1F7C3
:10F3D0000196883C9105C1F78091C00087FFEFCF6F
:10F3E00018B8C3C08FEF8AB90DC08BB180958BB9A7
:10F3F00080E090E0E0EDF7E03197F1F70196883C8E
:10F400009105C1F78091C00087FFEFCF1BB8ADC059
:10F410008FEF8DB90DC08EB180958EB980E090E0F0
:10F42000E0EDF7E03197F1F70196883C9105C1F7DF
:10F430008091C00087FFEFCF1EB897C08FEF80BBD1
:10F440000DC081B3809581BB80E090E0E0EDF7E0F6
:10F450003197F1F70196883C9105C1F78091C00082
:10F4600087FFEFCF11BA81C08FEF83BB0DC084B38C
:10F47000809584BB80E090E0E0EDF7E03197F1F714
:10F480000196883C9105C1F78091C00087FFEFCFBE
:10F4900014BA6BC08FEF809301010FC080910201FD
:10F4A00080958093020180E090E0E0EDF7E03197F5
:10F4B000F1F70196883C9105C1F78091C00087FF64
:10F4C000EDCF1092020151C08FEF809304010FC065
:10F4D0008091050180958093050180E090E0E0ED4A
:10F4E000F7E03197F1F70196883C9105C1F78091DB
:10F4F000C00087FFEDCF1092050137C08FEF8093DA
:10F5000007010FC08091080180958093080180E079
:10F5100090E0E0EDF7E03197F1F70196883C910536
:10F52000C1F78091C00087FFEDCF109208011DC088
:10F530008FEF80930A010FC080910B01809580931B
:10F540000B0180E090E0E0EDF7E03197F1F70196F4
:10F55000883C9105C1F78091C00087FFEDCF1092E4
:10F560000B0103C085E292EEEEC98091C00087FFD7
:10F57000FCCF8091C600EAC988E392EEE4C98CE131
:10F5800091EEE1C988249924933011F1943028F444
:10F59000913089F09230B8F408C0953061F195301F
:10F5A000F0F0963009F048C043C02B3109F042C951
:10F5B00091E06BE13FC96227C15DDE4F2883CF52E6
:10F5C000D14092E037C9B22FA0E0622793E032C960
:10F5D000822F90E0A82BB92B622794E02BC92E3004
:10F5E00009F039C3622795E0C05DDE4F19821882A9
:10F5F000C053D1401FC9E1E0F0E0EC0FFD1FC05D3A
:10F60000DE4F08811981C053D140E00FF11F2083E4
:10F610000F5F1F4FC05DDE4F19830883C053D14079
:10F6200062270A171B0709F005C9D80196E002C92D
:10F63000261709F010C303C0973009F0FBC87724E0
:10F640009981933109F412C19431C8F4963009F4C8
:10F65000D8C0973050F4923009F406C1933009F4C1
:10F660006DC0913009F059C253C0913109F477C08F
:10F67000923108F0BBC0903109F04FC2F5C098310B
:10F6800009F487C0993150F4953109F4EFC09531F0
:10F6900008F4C6C1963109F040C2C2C19A3109F4DA
:10F6A0006CC09A3108F491C09B3109F45BC09D3164
:10F6B00009F033C29D81903359F48F81882311F46E
:10F6C0009EE11CC0813011F091E018C098E916C08D
:10F6D000892F807591F0903539F4E0E0F0E089E011
:10F6E0008093570094910AC0983539F4E3E0F0E034
:10F6F00089E080935700949101C090E01A821B82A8
:10F700008D818C831D829E831F8227E030E009C299
:10F710001A8288E08B8381E48C8386E58D8382E581
:10F720008E8389E48F8383E5888780E589878FE5E9
:10F730008A8782E38B872BE030E0F3C18A818139AD
:10F7400041F0823941F0803911F48FE005C080E04A
:10F7500003C082E001C08AE01A828B8344C0772410
:10F76000739482C08D81882311F48EE12CC0813086
:10F7700011F081E028C088E926C01A82E1E0F0E0BB
:10F7800089E08093570084918B831C8224E030E0D1
:10F79000C8C18B81803589F48C81883039F4E2E0EE
:10F7A000F0E089E08093570084910DC0E0E0F0E044
:10F7B00089E080935700849106C0E3E0F0E089E09F
:10F7C0008093570084911A82DFCF8D81836C99E0FA
:10F7D000E1E0F0E0082E90935700E89507B600FCB2
:10F7E000FDCF1A821B8223E030E09BC180EC8A832C
:10F7F000CE5CDE4F188219821A821B82C253D1401E
:10F800008EC18A8190E0A0E0B0E0582F44273327D2
:10F8100022278B8190E0A0E0B0E0DC0199278827C7
:10F82000282B392B4A2B5B2B8D8190E0A0E0B0E098
:10F83000282B392B4A2B5B2B8C8190E0A0E0B0E089
:10F84000BA2FA92F982F8827282B392B4A2B5B2BCF
:10F85000220F331F441F551FC05EDE4F288339839C
:10F860004A835B83C052D1401A8259C13A81C95C34
:10F87000DE4F3883C753D140CA5CDE4F1882C6536F
:10F88000D1408B81C82EDD24CA5CDE4F488159816E
:10F89000C653D140C42AD52A933109F082C0CE5C28
:10F8A000DE4F88819981AA81BB81C253D1408050AB
:10F8B000904CA340B04030F583E0CE5CDE4FE88052
:10F8C000F9800A811B81C253D140F70100935B008C
:10F8D00080935700E89507B600FCFDCFCE5CDE4F65
:10F8E000088119812A813B81C253D14000501F4FAA
:10F8F0002F4F3F4FCE5CDE4F088319832A833B8313
:10F90000C253D140C05EDE4F488159816A817B81FC
:10F91000C052D140DE011B9631E08C9111962C91A2
:10F9200011971296C75CDE4F2883C953D140C85C3B
:10F93000DE4F1882C853D14090E0C85CDE4FE881AA
:10F94000F981C853D1408E2B9F2B0C01FA01609393
:10F950005B0030935700E89511244E5F5F4F6F4F67
:10F960007F4F0EEFE02E0FEFF02ECE0CDF1CC114F8
:10F97000D10499F685E0C05EDE4F088119812A81A5
:10F980003B81C052D140F80120935B008093570027
:10F99000E89507B600FCFDCF81E180935700E8951C
:10F9A00035C0C05EDE4F88819981AA81BB81C0527B
:10F9B000D140B695A795979587957C018601ABE0D8
:10F9C000AA2EB12CAC0EBD1E0BC0D5016D915D01F0
:10F9D000C7010F947FFE0894E11CF11C01501040F8
:10F9E0000115110591F7A60160E070E0440F551F65
:10F9F000661F771FC05EDE4FE880F9800A811B8199
:10FA0000C052D1404E0D5F1D601F711F1A82C05E33
:10FA1000DE4F488359836A837B83C052D1407FC0C5
:10FA2000FA80C55CDE4FF882CB53D140C65CDE4F16
:10FA30001882CA53D1408B81C82EDD24C65CDE4FAC
:10FA400008811981CA53D140C02AD12A1A828981DA
:10FA5000BE016D5F7F4F843121F59601C05EDE4FA0
:10FA6000E880F9800A811B81C052D1400BBFF701A9
:10FA700087919691DB018C9311969C936E5F7F4FDB
:10FA8000D801C7010296A11DB11DC05EDE4F88835B
:10FA90009983AA83BB83C052D14022503040F1F6F3
:10FAA00036C0C05EDE4F288139814A815B81C052F9
:10FAB000D1400894C108D108760100E010E0089414
:10FAC000C11CD11C0894E11CF11C011D111DE20E8A
:10FAD000F31E041F151F21BDBB27A52F942F832FB5
:10FAE00082BD2F5F3F4F4F4F5F4FF89A80B5DB01CC
:10FAF0008D93BD012E153F054007510761F7C05E8C
:10FB0000DE4F288339834A835B83C052D1409601FC
:10FB10002D5F3F4FFB01108204C080EC8A8322E0FE
:10FB200030E08BE18093C6008091C00086FFFCCF5F
:10FB30008091C00080648093C000C15DDE4FF88179
:10FB4000CF52D140F093C6008091C00086FFFCCF19
:10FB50008091C00080648093C000432F3093C60022
:10FB60008091C00086FFFCCF8091C00080648093AC
:10FB7000C000922F2093C6008091C00086FFFCCF6A
:10FB80008091C00080648093C0008EE08093C600A6
:10FB90008091C00086FFFCCF8091C000806480937C
:10FBA000C00065E1C15DDE4FE880CF52D1406E25D7
:10FBB00069276427FE01319610C090819093C6009A
:10FBC0008091C00086FFFCCF31968091C000806498
:10FBD0008093C0006927215030402115310569F715
:10FBE0006093C6008091C00086FFFCCF8091C0006A
:10FBF00080648093C00085B1805885B9772081F4F6
:10FC0000C15DDE4F0881CF52D1400F5FC15DDE4F35
:10FC10000883CF52D14090E0A0E0B0E00D941AF4F8
:10FC200027982F9880E090E020ED37E0F901319798
:10FC3000F1F7019684369105C9F700008091C00064
:10FC40008D7F8093C00081E180935700E895EE2777
:10FC5000FF270994FFCF90E00D941AF497FB092E2B
:10FC600007260AD077FD04D02ED006D000201AF443
:10FC7000709561957F4F0895F6F7909581959F4F08
:10FC80000895A1E21A2EAA1BBB1BFD010DC0AA1FDD
:10FC9000BB1FEE1FFF1FA217B307E407F50720F0F5
:10FCA000A21BB30BE40BF50B661F771F881F991F70
:10FCB0001A9469F760957095809590959B01AC01B9
:10FCC000BD01CF010895AA1BBB1B51E107C0AA1FAC
:10FCD000BB1FA617B70710F0A61BB70B881F991FED
:10FCE0005A95A9F780959095BC01CD010895F99991
:10FCF000FECF92BD81BDF89A992780B50895262F31
:10FD0000F999FECF1FBA92BD81BD20BD0FB6F89400
:0EFD1000FA9AF99A0FBE01960895F894FFCF63
:00000001FF
