:100000000C9428010C9459010C9459010C94590139
:100010000C9459010C9459010C9459010C945901F8
:100020000C9459010C9459010C9459010C945901E8
:100030000C9459010C9459010C9459010C945901D8
:100040000C9459010C9459010C9459010C945901C8
:100050000C9459010C9459010C9459010C94860488
:100060000C9459010C94FA040C94D0040C9459018A
:100070000C9459010C9459010C9459010C94590198
:100080000C9459010C9459010C9459010C94590188
:100090000C94D3050C94AB050C9430050C945901C9
:1000A0000C9459010C9459010C9459010C94590168
:1000B0000C9459010C9459010C9459010C94590158
:1000C0000C9459010C9459010C9459010C94590148
:1000D0000C9459010C9459010C9459010C94590138
:1000E0000C9459010C9418020C94C5010C94B101A4
:1000F0000C94A6010C94A2010C9454020C94450299
:100100000C9490010C94AE010C94FB020C940B0A1D
:100110000C9476020C94B7010C94C1010C94BB01B1
:100120000C94D7010C948B010C9468020C94AE02D1
:100130000C94CF010C94E1010C94C9010C94AA0118
:100140000C94DD010C94D301000021002400270051
:100150002A002D00300033000101000004010701D6
:100160000A0100002200250028002B002E0031008B
:10017000340002010000050108010B010505050519
:10018000070508080808020202020A0A080804040F
:10019000040401010101010101010303030303033D
:1001A0000303040707070C0C0C0C0C0C0C0C0202CC
:1001B000020206060606060606060B0B0B0B0B0BC9
:1001C0000B0B010210202008081020401020408056
:1001D000020102010804020101020408102040800B
:1001E0008040201008040201800402018040201099
:1001F00008040201080402010102040810204080E2
:10020000010204081020408000000A0B02090C0DB6
:100210000E080703040100000000000000000000B9
:1002200000000000000000000000000000000000CE
:10023000000000001211100000000000000000008B
:1002400000000000000000000000000000000B0A99
:1002500011241FBECFEFD1E2DEBFCDBF00E00CBF47
:1002600013E0A0E0B2E0E0E4F9E100E00BBF02C07F
:1002700007900D92AE32B107D9F726E0AEE2B3E0B7
:1002800001C01D92A830B207E1F711E0C8E2D1E049
:1002900000E006C021970109802FFE010E94960C04
:1002A000C732D10780E00807A9F70E946F060C94B7
:1002B0009E0C0C940000282F30E0F901E85FFD4F00
:1002C0009491F901EE53FE4F449124583E4FF901A9
:1002D0002491222309F435C0992311F191509231D0
:1002E000F8F4E92FF0E08827E758FE4F8F4F0C9481
:1002F000960CAA01AE018B01A201A6019001B101E9
:10030000B701BB01C101C501C901CF01D3019001F2
:10031000D701DD01E101809180008F77809380001B
:10032000E22FF0E0EE0FFF1FEE59FE4FA591B491C2
:100330008FB7F894EC91611148C040954E234C93CF
:100340008FBF0895809180008F7DE8CF80918000DD
:10035000877FE4CF84B58F7784BDE2CF84B58F7D6E
:10036000FBCF8091B0008F778093B000D9CF809180
:10037000B0008F7DF9CF809190008F7780939000AF
:10038000CFCF809190008F7DF9CF80919000877FB3
:10039000F5CF8091A0008F778093A000C1CF80918E
:1003A000A0008F7DF9CF8091A000877FF5CF80914D
:1003B00020018F7780932001B3CF809120018F7D22
:1003C000F9CF80912001877FF5CF4E2BB8CF3FB773
:1003D000F8948091670590916805A0916905B091A6
:1003E0006A0526B5A89B05C02F3F19F00196A11DEF
:1003F000B11D3FBFBA2FA92F982F8827BC01CD016F
:10040000620F711D811D911D42E0660F771F881FCD
:10041000991F4A95D1F708952FB7F8946091630515
:100420007091640580916505909166052FBF0895D0
:10043000AF92BF92CF92DF92EF92FF920F931F93F2
:10044000CF93DF936C017B018B01040F151FEB0130
:100450005E01AE18BF08C017D10759F06991D601E7
:10046000ED91FC910190F081E02DC6011995892B49
:1004700079F7C501DF91CF911F910F91FF90EF9018
:10048000DF90CF90BF90AF900895FC01538D448DC5
:10049000252F30E0842F90E0821B930B541710F02F
:1004A000CF96089501970895FC01918D828D98173C
:1004B00061F0A28DAE0FBF2FB11D5D968C91928D14
:1004C0009F5F9F73928F90E008958FEF9FEF089545
:1004D000FC01918D828D981731F0828DE80FF11D0E
:1004E000858D90E008958FEF9FEF0895FC01918D29
:1004F000228D892F90E0805C9F4F821B91098F7322
:10050000992708958BE695E00E94760221E0892BD9
:1005100009F420E0822F0895FC01A48DA80FB92FC3
:10052000B11DA35ABF4F2C91848D90E001968F731B
:100530009927848FA689B7892C93A089B1898C913A
:10054000837080648C93938D848D981306C0028889
:10055000F389E02D80818F7D80830895EF92FF9253
:100560000F931F93CF93DF93EC0181E0888F9B8DD6
:100570008C8D98131AC0E889F989808185FF15C090
:100580009FB7F894EE89FF896083E889F9898081B3
:100590008370806480839FBF81E090E0DF91CF9182
:1005A0001F910F91FF90EF900895F62E0B8D10E0A4
:1005B0000F5F1F4F0F731127E02E8C8D8E110CC013
:1005C0000FB607FCFACFE889F989808185FFF5CF5E
:1005D000CE010E948C02F1CFEB8DEC0FFD2FF11DAF
:1005E000E35AFF4FF0829FB7F8940B8FEA89FB899B
:1005F00080818062CFCFCF93DF93EC01888D8823F9
:10060000B9F0AA89BB89E889F9898C9185FD03C075
:10061000808186FD0DC00FB607FCF7CF8C9185FF5A
:10062000F2CF808185FFEDCFCE010E948C02E9CF11
:10063000DF91CF91089580E090E0892B29F00E940E
:10064000820281110E94000080E090E0892B49F035
:1006500080E090E0892B29F00E94000081110E9427
:10066000000080E090E0892B49F080E090E0892B49
:1006700029F00E94000081110E94000080E090E0BB
:10068000892B49F080E090E0892B29F00E9400003E
:1006900081110C9400000895FC0101900020E9F7FD
:1006A0003197AF01481B590BBC018BE695E00C94C8
:1006B00018028F929F92AF92BF920F931F93CF9386
:1006C000DF93CDB7DEB7A1970FB6F894DEBF0FBEAC
:1006D000CDBF19A2423008F44AE08E010F5D1F4FD2
:1006E000842E912CB12CA12CA50194010E94740C94
:1006F000E62FB901CA01EA30F4F4E05DD801EE93C7
:100700008D01232B242B252B79F790E080E0109787
:1007100019F0CD010E944C03A1960FB6F894DEBFEC
:100720000FBECDBFDF91CF911F910F91BF90AF90C2
:100730009F908F900895E95CE1CFCF93DF930E9463
:100740004C03EC0185E192E00E944C038C0F9D1F4D
:10075000DF91CF9108950C944C034F925F926F926A
:100760007F928F929F92AF92BF92CF92DF92EF9241
:10077000FF92CF93DF936B017C01942EAC019B0120
:100780000E946F0C882391F088E192E0DF91CF9175
:10079000FF90EF90DF90CF90BF90AF909F908F90A1
:1007A0007F906F905F904F900C944C03260137011F
:1007B000E89477F82FEF3FEF4FE75FE7C301B2010F
:1007C0000E946F0C81110DC02FEF3FEF4FE75FE7E5
:1007D000C301B2010E94A50A18161CF48CE192E034
:1007E000D5CF2FEF3FEF4FE75FE4C701B6010E947F
:1007F000FD0B18161CF480E292E0C8CF2FEF3FEFFC
:100800004FE75FECC701B6010E94A50A87FDF3CF51
:1008100020E030E0A901C701B6010E94A50AB12C71
:10082000A12C87FF0AC06DE28BE695E00E94AE0224
:100830005C01F7FAF094F7F8F094C92D60E070E0ED
:1008400080E09FE3D0E020E030E040E251E40E940D
:10085000AA0A21E02D0FD1E02915A8F3A7019601DE
:100860000E94390A2B013C010E941C0B6B017C0188
:100870000E944B0B9B01AC01C301B2010E94380ADC
:100880002B013C014AE0C701B6010E9459037C01DB
:100890006EE28BE695E00E94AE02E80EF91EEA0CCD
:1008A000FB1CC15018F120E030E040E251E4C301EC
:1008B000B2010E94020C2B013C010E941C0B4B0157
:1008C000B12CA12C4AE0C501B4010E945903E80EE5
:1008D000F91EC501B4010E944B0B9B01AC01C30181
:1008E000B2010E94380A2B013C01DBCFC701DF9126
:1008F000CF91FF90EF90DF90CF90BF90AF909F90FF
:100900008F907F906F905F904F9008951F920F92FD
:100910000FB60F9211242F933F938F939F93AF9312
:10092000BF938091630590916405A0916505B09196
:1009300066053091620523E0230F2D3758F50196A7
:10094000A11DB11D209362058093630590936405FA
:10095000A0936505B0936605809167059091680541
:10096000A0916905B0916A050196A11DB11D809302
:10097000670590936805A0936905B0936A05BF91D8
:10098000AF919F918F913F912F910F900FBE0F903C
:100990001F90189526E8230F0296A11DB11DD2CFF6
:1009A0001F920F920FB60F9211240BB60F922F9336
:1009B0003F934F935F936F937F938F939F93AF93E7
:1009C000BF93EF93FF938BE695E00E948C02FF911B
:1009D000EF91BF91AF919F918F917F916F915F91B7
:1009E0004F913F912F910F900BBE0F900FBE0F9024
:1009F0001F9018951F920F920FB60F9211240BB6ED
:100A00000F922F938F939F93EF93FF93E0917B052A
:100A1000F0917C058081E0918105F091820582FD55
:100A20001DC09081809184058F5F8F732091850513
:100A3000821741F0E0918405F0E0E559FA4F958F77
:100A400080938405FF91EF919F918F912F910F904B
:100A50000BBE0F900FBE0F901F9018958081F2CFA4
:100A60001F920F920FB60F9211240BB60F922F9375
:100A70003F938F939F93EF93FF93809134039091D3
:100A800035032091390330913A032130310509F5BE
:100A90008F3F9807F1F41092CD0089E08093CC004D
:100AA00088E48093C9008EE28093CA001092CE0041
:100AB0001092350310923403FF91EF919F918F9123
:100AC0003F912F910F900BBE0F900FBE0F901F9074
:100AD00018950097A1F41092CD0083E08093CC008C
:100AE00088E28093C9008EE08093CA001092CE0005
:100AF00081E090E09093350380933403DDCF209123
:100B00000002309101028217930774F49C012F5F59
:100B10003F4F3093350320933403825C9C4FFC019C
:100B200080818093CE00C8CF1092CD0083E0809367
:100B3000CC0088E48093C9008EE08093CA00E091E5
:100B40003403F0913503E25CFC4F80818093CE004A
:100B50008FEF9FEFCFCF1F920F920FB60F921124FE
:100B60000BB60F922F933F934F935F936F937F93A7
:100B70008F939F93AF93BF93EF93FF930E943005A2
:100B8000FF91EF91BF91AF919F918F917F916F9165
:100B90005F914F913F912F910F900BBE0F900FBE21
:100BA0000F901F9018951F920F920FB60F9211245D
:100BB0000BB60F921F932F933F934F935F936F93B7
:100BC0007F938F939F93AF93BF93CF93DF93EF93D5
:100BD000FF939091C8001091CE0080913603813030
:100BE000C9F482E080933603FF91EF91DF91CF91BA
:100BF000BF91AF919F918F917F916F915F914F9135
:100C00003F912F911F910F900BBE0F900FBE0F9031
:100C10001F90189594FF20C083E0809336038EE3E5
:100C200093E09093330380933203809136038530B1
:100C3000D9F68091390390913A03039709F048C09F
:100C40001092CD0083E08093CC0080E18093C900B6
:100C500086E08093CA00C8CF8330A9F4111134C054
:100C600084E0809336030E940C0260933F057093EA
:100C70004005809341059093420580913203909105
:100C800033030196CECF843081F6C0913203D091E8
:100C900033038881181759F00E940C0260932E03C9
:100CA00070932F0380933003909331031883219620
:100CB000D0933303C093320380913B0390913C0364
:100CC0008C179D0708F090CF85E080933603ADCF59
:100CD00082E08093360381E080933D0385CFCF93FC
:100CE000DF9300D000D000D01F92CDB7DEB778944C
:100CF00084B5826084BD84B5816084BD85B5826021
:100D000085BD85B5816085BD80916E0081608093D1
:100D10006E0010928100809181008260809381003A
:100D2000809181008160809381008091800081604A
:100D3000809380008091B10084608093B1008091A5
:100D4000B00081608093B0008091910082608093B8
:100D5000910080919100816080939100809190003A
:100D60008160809390008091A10082608093A100B7
:100D70008091A10081608093A1008091A00081609A
:100D80008093A00080912101826080932101809155
:100D900021018160809321018091200181608093F5
:100DA000200180917A00846080937A0080917A009B
:100DB000826080937A0080917A00816080937A00CB
:100DC00080917A00806880937A001092C100E0914F
:100DD0007B05F0917C0582E08083E0917705F091BE
:100DE00078051082E0917905F0917A0580E18083A1
:100DF00010928305E0917F05F091800586E0808365
:100E0000E0917D05F0917E05808180618083E09195
:100E10007D05F0917E05808188608083E0917D056D
:100E2000F0917E05808180688083E0917D05F0915E
:100E30007E0580818F7D80830E94E7014B015C01EC
:100E400048ECC42ED12CE12CF12C0E94E70168194A
:100E500079098A099B09683E734081059105A8F3C9
:100E600021E0C21AD108E108F10848EE840E43E0FF
:100E7000941EA11CB11CC114D104E104F10429F792
:100E800085E192E00E944C0384E292E00E949D037F
:100E900087E492E00E949D0387E792E00E949D0311
:100EA00082EA92E00E949D0382E090E090933803F2
:100EB0008093370381E080933603109235031092BC
:100EC00034038EE393E090933303809332030E94C4
:100ED0000C0260933F057093400580934105909309
:100EE000420580913F0590914005A0914105B09148
:100EF000420580932E0390932F03A0933003B09369
:100F0000310310923D0380E092E0909301028093C0
:100F100000028091000290910102825C9C4F9093AC
:100F20003C0380933B036EE373E07A876987A9856E
:100F3000BA851D92BA87A987AF53B540C1F782E041
:100F400090E090933A03809339031092C800809107
:100F50003703909138039927FC01EE53FE4F2491FB
:100F600084589E4FFC018491882399F090E0880F6B
:100F7000991FFC01E85BFE4FA591B491FC01EE596D
:100F8000FE4F859194918FB7F894EC91E22BEC93FE
:100F90008FBF1091370360E0812F0E945B01809129
:100FA000390390913A038130910509F0FBC161E06A
:100FB000812F0E945B0180E290E090930102809378
:100FC00000021092CD0089E08093CC0088E48093E9
:100FD000C9008EE28093CA001092CE0080E092E0B9
:100FE00090930102809300028EE395E090933C037E
:100FF00080933B0380ED92E00E949D0311E00E94EC
:101000000C026B017C0180913D03882309F496C09A
:1010100010923D0320913F0330916105332329F065
:1010200080916005821709F489C080915C059091D8
:101030005D05A0915E05B0915F050196A11DB11DF2
:1010400080935C0590935D05A0935E05B0935F056A
:10105000332309F465C08091580590915905A091FA
:101060005A05B0915B05B701A601481B590B6A0BE5
:101070007B0BDB01CA0140915405509155056091ED
:10108000560570915705481759076A077B0740F4C2
:101090008093540590935505A0935605B09357053A
:1010A00080916005522F581B852F523068F1815076
:1010B000990B092E000CAA0BBB0B409150055091C7
:1010C00051056091520570915305840F951FA61F1D
:1010D000B71F8093500590935105A0935205B0938C
:1010E000530580914C0590914D05A0914E05B0910E
:1010F0004F050196A11DB11D80934C0590934D05A0
:10110000A0934E05B0934F05EFE3F3E0822F91914A
:1011100089136DC18F5F69857A856E177F07B9F76F
:10112000209360052093470510936105C0925805F0
:10113000D0925905E0925A05F0925B0580914305E3
:1011400090914405A0914505B091460526013701CF
:10115000481A590A6A0A7B0A78EE471673E057065E
:101160006104710408F41BC1C0924305D092440588
:10117000E0924505F092460580915C0590915D05F1
:10118000A0915E05B0915F0589839A83AB83BC8390
:1011900060915005709151058091520590915305D1
:1011A00089809A80AB80BC80860E971EA81EB91ECF
:1011B00081149104A104B10409F412C10E944B0BE3
:1011C00020E030E048EC52E40E94020C6D837E8304
:1011D0008F839887C501B4010E944B0B9B01AC0122
:1011E0006D817E818F8198850E94AA0A4B015C01E6
:1011F000809102028111F8C08DEE92E00E94AB0353
:10120000C701B60128EE33E040E050E00E94740CC4
:10121000CA01B9014AE00E94590386ED92E00E949A
:10122000AB0360915C0570915D0580915E059091C6
:101230005F054AE00E94590380EE92E00E94AB03F2
:1012400069817A818B819C810E944B0B20E030E088
:101250004AE754E40E94020C6B017C01C301B20115
:101260000E944B0B9B01AC01C701B6010E94AA0A68
:1012700042E050E00E94AD0387EE92E00E94AB0393
:1012800060915005709151058091520590915305E0
:101290004AE00E94590380EF92E00E94AB03609104
:1012A0004C0570914D0580914E0590914F054AE097
:1012B0000E94590387EF92E00E94AB0341E050E0A7
:1012C000C501B4010E94AD038EEF92E00E94AB0312
:1012D000609148057091490580914A0590914B05B0
:1012E0004AE00E94590389E093E00E94AB036091B9
:1012F00054057091550580915605909157054AE027
:101300000E94590383E193E00E94AB03609147057B
:1013100070E090E080E04AE00E94590381E293E0AF
:101320000E94AB030E940C02C0903F05D090400584
:10133000E0904105F09042056C197D098E099F09E6
:101340004AE00E9459038BE293E00E949D031092B1
:101350005C0510925D0510925E0510925F0510927B
:10136000500510925105109252051092530510929B
:101370004C0510924D0510924E0510924F0510929B
:1013800048051092490510924A0510924B0510929B
:1013900054051092550510925605109257050E945B
:1013A0001B032DCE029709F019CE8EE393E09093A4
:1013B00033038093320381E0809336031092CD0093
:1013C00083E08093CC0080E98093C90086E080931D
:1013D000CA008091C80087FF01CE8091CE00F9CF6E
:1013E000812C912C540104CF10920202B0CF809135
:1013F000480590914905A0914A05B0914B05019689
:10140000A11DB11D8093480590934905A0934A05FD
:10141000B0934B0585CEEBE6F5E01382128288EEA1
:1014200093E0A0E0B0E084839583A683B78387E050
:1014300092E09183808385EC90E09587848784ECAB
:1014400090E09787868780EC90E0918B808B81EC91
:1014500090E0938B828B82EC90E0958B848B86EC72
:1014600090E0978B868B118E128E138E148E0895BA
:101470005058BB27AA270E94500A0C94C30B0E9405
:10148000B50B38F00E94BC0B20F039F49F3F19F4E3
:1014900026F40C94B20B0EF4E095E7FB0C94AC0B25
:1014A000E92F0E94D40B58F3BA1762077307840719
:1014B000950720F079F4A6F50C94F60B0EF4E09560
:1014C0000B2EBA2FA02D0B01B90190010C01CA01FE
:1014D000A0011124FF27591B99F0593F50F4503EA9
:1014E00068F11A16F040A22F232F342F4427585F9B
:1014F000F3CF469537952795A795F0405395C9F7B3
:101500007EF41F16BA0B620B730B840BBAF091506A
:10151000A1F0FF0FBB1F661F771F881FC2F70EC009
:10152000BA0F621F731F841F48F4879577956795DC
:10153000B795F7959E3F08F0B0CF9395880F08F0C8
:101540009927EE0F9795879508950E94880B08F4C8
:1015500081E008950E94BE0A0C94C30B0E94BC0B4C
:1015600058F00E94B50B40F029F45F3F29F00C942D
:10157000AC0B51110C94F70B0C94B20B0E94D40BD2
:1015800068F39923B1F3552391F3951B550BBB27B2
:10159000AA2762177307840738F09F5F5F4F220FF7
:1015A000331F441FAA1FA9F335D00E2E3AF0E0E8EE
:1015B00032D091505040E695001CCAF72BD0FE2F38
:1015C00029D0660F771F881FBB1F261737074807CC
:1015D000AB07B0E809F0BB0B802DBF01FF27935884
:1015E0005F4F3AF09E3F510578F00C94AC0B0C9491
:1015F000F70B5F3FE4F3983ED4F3869577956795B4
:10160000B795F7959F5FC9F7880F911D96958795B8
:1016100097F90895E1E0660F771F881FBB1F6217D7
:1016200073078407BA0720F0621B730B840BBA0B95
:10163000EE1F88F7E09508950E94DC0B88F09F5715
:1016400098F0B92F9927B751B0F0E1F0660F771FE6
:10165000881F991F1AF0BA95C9F714C0B13091F0DC
:101660000E94F60BB1E008950C94F60B672F782FCB
:101670008827B85F39F0B93FCCF3869577956795A1
:10168000B395D9F73EF490958095709561957F4F0D
:101690008F4F9F4F0895E89409C097FB3EF49095B3
:1016A0008095709561957F4F8F4F9F4F9923A9F03B
:1016B000F92F96E9BB279395F695879577956795CA
:1016C000B795F111F8CFFAF4BB0F11F460FF1BC00E
:1016D0006F5F7F4F8F4F9F4F16C0882311F096E9A1
:1016E00011C0772321F09EE8872F762F05C066234F
:1016F00071F096E8862F70E060E02AF09A95660F08
:10170000771F881FDAF7880F9695879597F90895C0
:10171000990F0008550FAA0BE0E8FEEF1616170602
:10172000E807F907C0F012161306E407F50798F06A
:10173000621B730B840B950B39F40A2661F0232B83
:10174000242B252B21F408950A2609F4A140A695FF
:101750008FEF811D811D089597F99F6780E870E0E4
:1017600060E008959FEF80EC089500240A94161617
:10177000170618060906089500240A94121613067F
:10178000140605060895092E0394000C11F488230D
:1017900052F0BB0F40F4BF2B11F460FF04C06F5F29
:1017A0007F4F8F4F9F4F089557FD9058440F551FFF
:1017B00059F05F3F71F04795880F97FB991F61F0D3
:1017C0009F3F79F087950895121613061406551F4A
:1017D000F2CF4695F1DF08C0161617061806991FB6
:1017E000F1CF86957105610508940895E894BB27AB
:1017F00066277727CB0197F908950E94880B08F494
:101800008FEF08950E94150C0C94C30B0E94B50B2A
:1018100038F00E94BC0B20F0952311F00C94AC0B17
:101820000C94B20B11240C94F70B0E94D40B70F3A0
:10183000959FC1F3950F50E0551F629FF001729F75
:10184000BB27F00DB11D639FAA27F00DB11DAA1F84
:10185000649F6627B00DA11D661F829F2227B00DD1
:10186000A11D621F739FB00DA11D621F839FA00D5C
:10187000611D221F749F3327A00D611D231F849FAC
:10188000600D211D822F762F6A2F11249F57504003
:101890009AF0F1F088234AF0EE0FFF1FBB1F661F7E
:1018A000771F881F91505040A9F79E3F510580F047
:1018B0000C94AC0B0C94F70B5F3FE4F3983ED4F31D
:1018C000869577956795B795F795E7959F5FC1F7EB
:1018D000FE2B880F911D9695879597F908950E9484
:1018E000880B880B990B0895A1E21A2EAA1BBB1B2B
:1018F000FD010DC0AA1FBB1FEE1FFF1FA217B307DC
:10190000E407F50720F0A21BB30BE40BF50B661FF1
:10191000771F881F991F1A9469F7609570958095B5
:1019200090959B01AC01BD01CF010895EE0FFF1F03
:10193000881F8BBF0790F691E02D1994F894FFCF84
:1019400020000100000000AE0218024502FB0276F2
:1019500002540268020D0A006E616E00696E660034
:101960006F7666003D3D3D20444D5820726566729D
:10197000657368206D6F6E69746F7220284D4547DE
:101980004129203D3D3D00444D5820696E707574DD
:10199000203A20555341525431202870696E20312D
:1019A000392052582920205B444D585F5553455FDC
:1019B000504F5254315D0054656C656D6574727999
:1019C000203A205553422053657269616C2028707B
:1019D000696E7320302F312920402031313532306B
:1019E00030005061747465726E2020203A20636864
:1019F000616E6E656C2063203D2028736571382010
:101A00002B2063202D2031292026203078464600C7
:101A100052454144590020757064617465733D00FE
:101A200020726174653D00487A206C6F73743D00CC
:101A300020676170733D00206C6F73733D0025203B
:101A40007061745F6572723D00206D61785F6761DF
:101A5000703D006D73206C6173745F736571383D08
:0E1A600000206E6F5F646174613D006D730065
:00000001FF
